{
  "_format": "hh-sol-artifact-1",
  "contractName": "BidManager",
  "sourceName": "contracts/BidManager.sol",
  "abi": [
    {
      "inputs": [],
      "stateMutability": "nonpayable",
      "type": "constructor"
    },
    {
      "anonymous": false,
      "inputs": [
        {
          "indexed": true,
          "internalType": "bytes32",
          "name": "procurementId",
          "type": "bytes32"
        },
        {
          "indexed": true,
          "internalType": "address",
          "name": "bidder",
          "type": "address"
        },
        {
          "indexed": false,
          "internalType": "uint256",
          "name": "amount",
          "type": "uint256"
        },
        {
          "indexed": false,
          "internalType": "bool",
          "name": "compliant",
          "type": "bool"
        }
      ],
      "name": "BidRevealed",
      "type": "event"
    },
    {
      "anonymous": false,
      "inputs": [
        {
          "indexed": true,
          "internalType": "bytes32",
          "name": "procurementId",
          "type": "bytes32"
        },
        {
          "indexed": false,
          "internalType": "uint256",
          "name": "totalBids",
          "type": "uint256"
        }
      ],
      "name": "BiddingClosed",
      "type": "event"
    },
    {
      "anonymous": false,
      "inputs": [
        {
          "indexed": true,
          "internalType": "bytes32",
          "name": "procurementId",
          "type": "bytes32"
        },
        {
          "indexed": false,
          "internalType": "uint256",
          "name": "abc",
          "type": "uint256"
        },
        {
          "indexed": false,
          "internalType": "uint256",
          "name": "deadline",
          "type": "uint256"
        }
      ],
      "name": "BiddingOpened",
      "type": "event"
    },
    {
      "anonymous": false,
      "inputs": [
        {
          "indexed": true,
          "internalType": "bytes32",
          "name": "procurementId",
          "type": "bytes32"
        },
        {
          "indexed": false,
          "internalType": "address",
          "name": "winner",
          "type": "address"
        },
        {
          "indexed": false,
          "internalType": "uint256",
          "name": "amount",
          "type": "uint256"
        }
      ],
      "name": "LowestBidDetermined",
      "type": "event"
    },
    {
      "anonymous": false,
      "inputs": [
        {
          "indexed": true,
          "internalType": "bytes32",
          "name": "procurementId",
          "type": "bytes32"
        },
        {
          "indexed": true,
          "internalType": "address",
          "name": "bidder",
          "type": "address"
        },
        {
          "indexed": false,
          "internalType": "bytes32",
          "name": "commitHash",
          "type": "bytes32"
        }
      ],
      "name": "SealedBidSubmitted",
      "type": "event"
    },
    {
      "inputs": [
        {
          "internalType": "bytes32",
          "name": "",
          "type": "bytes32"
        },
        {
          "internalType": "address",
          "name": "",
          "type": "address"
        }
      ],
      "name": "bids",
      "outputs": [
        {
          "internalType": "bytes32",
          "name": "commitHash",
          "type": "bytes32"
        },
        {
          "internalType": "uint256",
          "name": "revealedAmount",
          "type": "uint256"
        },
        {
          "internalType": "bool",
          "name": "committed",
          "type": "bool"
        },
        {
          "internalType": "bool",
          "name": "revealed",
          "type": "bool"
        },
        {
          "internalType": "bool",
          "name": "compliant",
          "type": "bool"
        }
      ],
      "stateMutability": "view",
      "type": "function"
    },
    {
      "inputs": [
        {
          "internalType": "bytes32",
          "name": "_procurementId",
          "type": "bytes32"
        }
      ],
      "name": "closeBidding",
      "outputs": [],
      "stateMutability": "nonpayable",
      "type": "function"
    },
    {
      "inputs": [
        {
          "internalType": "bytes32",
          "name": "_procurementId",
          "type": "bytes32"
        }
      ],
      "name": "finalizeReveals",
      "outputs": [],
      "stateMutability": "nonpayable",
      "type": "function"
    },
    {
      "inputs": [
        {
          "internalType": "bytes32",
          "name": "_procurementId",
          "type": "bytes32"
        },
        {
          "internalType": "uint256",
          "name": "_index",
          "type": "uint256"
        }
      ],
      "name": "getBidderAtIndex",
      "outputs": [
        {
          "internalType": "address",
          "name": "",
          "type": "address"
        }
      ],
      "stateMutability": "view",
      "type": "function"
    },
    {
      "inputs": [
        {
          "internalType": "bytes32",
          "name": "_procurementId",
          "type": "bytes32"
        }
      ],
      "name": "getBidderCount",
      "outputs": [
        {
          "internalType": "uint256",
          "name": "",
          "type": "uint256"
        }
      ],
      "stateMutability": "view",
      "type": "function"
    },
    {
      "inputs": [
        {
          "internalType": "bytes32",
          "name": "_procurementId",
          "type": "bytes32"
        }
      ],
      "name": "getLowestCompliantBid",
      "outputs": [
        {
          "internalType": "address",
          "name": "bidder",
          "type": "address"
        },
        {
          "internalType": "uint256",
          "name": "amount",
          "type": "uint256"
        }
      ],
      "stateMutability": "view",
      "type": "function"
    },
    {
      "inputs": [
        {
          "internalType": "bytes32",
          "name": "_procurementId",
          "type": "bytes32"
        }
      ],
      "name": "getSessionStatus",
      "outputs": [
        {
          "internalType": "enum BidManager.BiddingStatus",
          "name": "",
          "type": "uint8"
        }
      ],
      "stateMutability": "view",
      "type": "function"
    },
    {
      "inputs": [
        {
          "internalType": "bytes32",
          "name": "_procurementId",
          "type": "bytes32"
        },
        {
          "internalType": "uint256",
          "name": "_abc",
          "type": "uint256"
        },
        {
          "internalType": "uint256",
          "name": "_deadline",
          "type": "uint256"
        }
      ],
      "name": "openBidding",
      "outputs": [],
      "stateMutability": "nonpayable",
      "type": "function"
    },
    {
      "inputs": [],
      "name": "owner",
      "outputs": [
        {
          "internalType": "address",
          "name": "",
          "type": "address"
        }
      ],
      "stateMutability": "view",
      "type": "function"
    },
    {
      "inputs": [
        {
          "internalType": "bytes32",
          "name": "_procurementId",
          "type": "bytes32"
        },
        {
          "internalType": "address",
          "name": "_bidder",
          "type": "address"
        },
        {
          "internalType": "uint256",
          "name": "_amount",
          "type": "uint256"
        },
        {
          "internalType": "bytes32",
          "name": "_salt",
          "type": "bytes32"
        }
      ],
      "name": "revealBid",
      "outputs": [],
      "stateMutability": "nonpayable",
      "type": "function"
    },
    {
      "inputs": [
        {
          "internalType": "bytes32",
          "name": "",
          "type": "bytes32"
        }
      ],
      "name": "sessions",
      "outputs": [
        {
          "internalType": "bytes32",
          "name": "procurementId",
          "type": "bytes32"
        },
        {
          "internalType": "uint256",
          "name": "abc",
          "type": "uint256"
        },
        {
          "internalType": "uint256",
          "name": "deadline",
          "type": "uint256"
        },
        {
          "internalType": "enum BidManager.BiddingStatus",
          "name": "status",
          "type": "uint8"
        },
        {
          "internalType": "address",
          "name": "lowestBidder",
          "type": "address"
        },
        {
          "internalType": "uint256",
          "name": "lowestAmount",
          "type": "uint256"
        },
        {
          "internalType": "bool",
          "name": "exists",
          "type": "bool"
        }
      ],
      "stateMutability": "view",
      "type": "function"
    },
    {
      "inputs": [
        {
          "internalType": "bytes32",
          "name": "_procurementId",
          "type": "bytes32"
        },
        {
          "internalType": "bytes32",
          "name": "_commitHash",
          "type": "bytes32"
        }
      ],
      "name": "submitSealedBid",
      "outputs": [],
      "stateMutability": "nonpayable",
      "type": "function"
    },
    {
      "inputs": [
        {
          "internalType": "address",
          "name": "_newOwner",
          "type": "address"
        }
      ],
      "name": "transferOwnership",
      "outputs": [],
      "stateMutability": "nonpayable",
      "type": "function"
    }
  ],
  "bytecode": "0x608060405234801561001057600080fd5b50600080546001600160a01b031916331790556111f9806100326000396000f3fe608060405234801561001057600080fd5b50600436106100cf5760003560e01c80638da5cb5b1161008c578063d356738b11610066578063d356738b1461029f578063e38ba6bf146102b2578063e526a331146102e3578063f2fde38b146102f657600080fd5b80638da5cb5b1461022e578063abbb6bf614610259578063bf9349dc1461028c57600080fd5b8063190ba29c146100d4578063351bacd4146100e95780633599b57e1461012057806366e929bf146101335780636a279bbb146101af5780637dbd2832146101c2575b600080fd5b6100e76100e2366004610fa7565b610309565b005b6100fc6100f7366004610fe2565b610637565b604080516001600160a01b0390931683526020830191909152015b60405180910390f35b6100e761012e366004610fe2565b61068b565b61017f610141366004610ffb565b6002602081815260009384526040808520909152918352912080546001820154919092015460ff808216916101008104821691620100009091041685565b6040805195865260208601949094529115159284019290925290151560608301521515608082015260a001610117565b6100e76101bd366004610fe2565b6107d3565b61021b6101d0366004610fe2565b600160208190526000918252604090912080549181015460028201546003830154600584015460068501546007909501549394929360ff928316936001600160a01b03909216921687565b604051610117979695949392919061105f565b600054610241906001600160a01b031681565b6040516001600160a01b039091168152602001610117565b61027f610267366004610fe2565b60009081526001602052604090206003015460ff1690565b60405161011791906110aa565b6100e761029a3660046110b8565b6108dc565b6102416102ad3660046110b8565b610b3d565b6102d56102c0366004610fe2565b60009081526001602052604090206004015490565b604051908152602001610117565b6100e76102f13660046110da565b610bde565b6100e7610304366004611106565b610e61565b6000546001600160a01b0316331461033c5760405162461bcd60e51b815260040161033390611128565b60405180910390fd5b6000848152600160205260409020600781015460ff1661036e5760405162461bcd60e51b81526004016103339061116b565b600260038083015460ff169081111561038957610389611027565b146103e75760405162461bcd60e51b815260206004820152602860248201527f4269644d616e616765723a2062696464696e67206d75737420626520636c6f73604482015267195908199a5c9cdd60c21b6064820152608401610333565b60008581526002602081815260408084206001600160a01b03891685529091529091209081015460ff1661045d5760405162461bcd60e51b815260206004820152601f60248201527f4269644d616e616765723a206e6f207365616c65642062696420666f756e64006044820152606401610333565b6002810154610100900460ff16156104b75760405162461bcd60e51b815260206004820181905260248201527f4269644d616e616765723a2062696420616c72656164792072657665616c65646044820152606401610333565b60408051602080820187905281830186905282518083038401815260609092019092528051910120815481146105425760405162461bcd60e51b815260206004820152602a60248201527f4269644d616e616765723a20636f6d6d69746d656e74207665726966696361746044820152691a5bdb8819985a5b195960b21b6064820152608401610333565b60028201805461ff0019166101001790556001828101869055830154851180159061056d5750600085115b60028301805462ff00001916620100009215158302179081905560ff91900416156105d95760058301546001600160a01b031615806105af5750826006015485105b156105d9576005830180546001600160a01b0319166001600160a01b038816179055600683018590555b6002820154604080518781526201000090920460ff16151560208301526001600160a01b0388169189917f83e16818fea71fc3d57b93d8e876ad0572956c5a3b45d5c3a16b870097331e66910160405180910390a350505050505050565b6000818152600160205260408120600781015482919060ff1661066c5760405162461bcd60e51b81526004016103339061116b565b60058101546006909101546001600160a01b0390911694909350915050565b6000546001600160a01b031633146106b55760405162461bcd60e51b815260040161033390611128565b6000818152600160205260409020600781015460ff166106e75760405162461bcd60e51b81526004016103339061116b565b600260038083015460ff169081111561070257610702611027565b1461075a5760405162461bcd60e51b815260206004820152602260248201527f4269644d616e616765723a2062696464696e67206d75737420626520636c6f73604482015261195960f21b6064820152608401610333565b6003818101805460ff1916909117905560058101546001600160a01b0316156107cf5760058101546006820154604080516001600160a01b039093168352602083019190915283917fabbe0ff1de0f165abcf4de9a05c6739e1b6b5460f8b54369ac1b32535d49270e91015b60405180910390a25b5050565b6000546001600160a01b031633146107fd5760405162461bcd60e51b815260040161033390611128565b6000818152600160205260409020600781015460ff1661082f5760405162461bcd60e51b81526004016103339061116b565b600160038083015460ff169081111561084a5761084a611027565b146108975760405162461bcd60e51b815260206004820152601f60248201527f4269644d616e616765723a2062696464696e67206973206e6f74206f70656e006044820152606401610333565b60038101805460ff19166002179055600481015460405190815282907eeca519af3f7238a852ddab6c9befc27fb737e98c70a8b1f4a9f56dadaf8bcd906020016107c6565b6000828152600160205260409020600781015460ff1661090e5760405162461bcd60e51b81526004016103339061116b565b600160038083015460ff169081111561092957610929611027565b146109765760405162461bcd60e51b815260206004820152601f60248201527f4269644d616e616765723a2062696464696e67206973206e6f74206f70656e006044820152606401610333565b80600201544211156109d65760405162461bcd60e51b815260206004820152602360248201527f4269644d616e616765723a2062696464696e6720646561646c696e65207061736044820152621cd95960ea1b6064820152608401610333565b6000838152600260208181526040808420338552909152909120015460ff1615610a4e5760405162461bcd60e51b815260206004820152602360248201527f4269644d616e616765723a20616c7265616479207375626d6974746564206120604482015262189a5960ea1b6064820152608401610333565b6040805160a08101825283815260006020808301828152600184860181815260608601858152608087018681528b8752600280875289882033808a529088528a892099518a559551898601559251979092018054915192511515620100000262ff0000199315156101000261ff00199915159990991661ffff199093169290921797909717919091161790945560048601805494850181558352912090910180546001600160a01b03191682179055905184907f9bd5eb090716e4d26c7af9d2676756cc00df3516e00b084d3e35d815ab4f755e90610b309086815260200190565b60405180910390a3505050565b6000828152600160205260408120600401548210610b9d5760405162461bcd60e51b815260206004820152601f60248201527f4269644d616e616765723a20696e646578206f7574206f6620626f756e6473006044820152606401610333565b6000838152600160205260409020600401805483908110610bc057610bc06111ad565b6000918252602090912001546001600160a01b031690505b92915050565b6000546001600160a01b03163314610c085760405162461bcd60e51b815260040161033390611128565b60008381526001602052604090206007015460ff1615610c755760405162461bcd60e51b815260206004820152602260248201527f4269644d616e616765723a2073657373696f6e20616c72656164792065786973604482015261747360f01b6064820152608401610333565b60008211610cc55760405162461bcd60e51b815260206004820152601b60248201527f4269644d616e616765723a20414243206d757374206265203e203000000000006044820152606401610333565b428111610d275760405162461bcd60e51b815260206004820152602a60248201527f4269644d616e616765723a20646561646c696e65206d75737420626520696e206044820152697468652066757475726560b01b6064820152608401610333565b60408051610100810182528481526020808201858152828401858152600160608501818152865160008082528187018952608088019190915260a0870181905260c0870181905260e087018390528a81529482905295909320845181559151828401555160028201559251600380850180549495949293909260ff1916918490811115610db657610db6611027565b021790555060808201518051610dd6916004840191602090910190610f11565b5060a08201516005820180546001600160a01b0319166001600160a01b0390921691909117905560c0820151600682015560e0909101516007909101805460ff1916911515919091179055604080518381526020810183905284917f09159b8bcc1a884cc73fa6a5db07b4473f4169fd7b0010e792a6a63c30c195dc910160405180910390a2505050565b6000546001600160a01b03163314610e8b5760405162461bcd60e51b815260040161033390611128565b6001600160a01b038116610eef5760405162461bcd60e51b815260206004820152602560248201527f4269644d616e616765723a206e6577206f776e6572206973207a65726f206164604482015264647265737360d81b6064820152608401610333565b600080546001600160a01b0319166001600160a01b0392909216919091179055565b828054828255906000526020600020908101928215610f66579160200282015b82811115610f6657825182546001600160a01b0319166001600160a01b03909116178255602090920191600190910190610f31565b50610f72929150610f76565b5090565b5b80821115610f725760008155600101610f77565b80356001600160a01b0381168114610fa257600080fd5b919050565b60008060008060808587031215610fbd57600080fd5b84359350610fcd60208601610f8b565b93969395505050506040820135916060013590565b600060208284031215610ff457600080fd5b5035919050565b6000806040838503121561100e57600080fd5b8235915061101e60208401610f8b565b90509250929050565b634e487b7160e01b600052602160045260246000fd5b6004811061105b57634e487b7160e01b600052602160045260246000fd5b9052565b878152602081018790526040810186905260e08101611081606083018761103d565b6001600160a01b0394909416608082015260a0810192909252151560c090910152949350505050565b60208101610bd8828461103d565b600080604083850312156110cb57600080fd5b50508035926020909101359150565b6000806000606084860312156110ef57600080fd5b505081359360208301359350604090920135919050565b60006020828403121561111857600080fd5b61112182610f8b565b9392505050565b60208082526023908201527f4269644d616e616765723a2063616c6c6572206973206e6f7420746865206f776040820152623732b960e91b606082015260800190565b60208082526022908201527f4269644d616e616765723a2073657373696f6e20646f6573206e6f74206578696040820152611cdd60f21b606082015260800190565b634e487b7160e01b600052603260045260246000fdfea2646970667358221220f9db007078df9fbf697852ad2c04eb1b80ed43201f61ee892d138fbc5976e95064736f6c63430008180033",
  "linkReferences": {},
  "deployedLinkReferences": {}
}