{
  "_format": "hh-sol-artifact-1",
  "contractName": "ProcurementRegistry",
  "sourceName": "contracts/ProcurementRegistry.sol",
  "abi": [
    {
      "inputs": [],
      "stateMutability": "nonpayable",
      "type": "constructor"
    },
    {
      "anonymous": false,
      "inputs": [
        {
          "indexed": true,
          "internalType": "bytes32",
          "name": "procurementId",
          "type": "bytes32"
        },
        {
          "indexed": false,
          "internalType": "bytes32",
          "name": "eventHash",
          "type": "bytes32"
        },
        {
          "indexed": false,
          "internalType": "enum ProcurementRegistry.EventType",
          "name": "eventType",
          "type": "uint8"
        },
        {
          "indexed": false,
          "internalType": "uint256",
          "name": "timestamp",
          "type": "uint256"
        }
      ],
      "name": "EventAnchored",
      "type": "event"
    },
    {
      "anonymous": false,
      "inputs": [
        {
          "indexed": true,
          "internalType": "bytes32",
          "name": "id",
          "type": "bytes32"
        },
        {
          "indexed": false,
          "internalType": "string",
          "name": "title",
          "type": "string"
        },
        {
          "indexed": false,
          "internalType": "uint256",
          "name": "abc",
          "type": "uint256"
        },
        {
          "indexed": false,
          "internalType": "uint256",
          "name": "timestamp",
          "type": "uint256"
        }
      ],
      "name": "ProcurementRegistered",
      "type": "event"
    },
    {
      "inputs": [
        {
          "internalType": "bytes32",
          "name": "_procurementId",
          "type": "bytes32"
        },
        {
          "internalType": "bytes32",
          "name": "_eventHash",
          "type": "bytes32"
        },
        {
          "internalType": "enum ProcurementRegistry.EventType",
          "name": "_eventType",
          "type": "uint8"
        }
      ],
      "name": "anchorEvent",
      "outputs": [],
      "stateMutability": "nonpayable",
      "type": "function"
    },
    {
      "inputs": [
        {
          "internalType": "bytes32",
          "name": "",
          "type": "bytes32"
        },
        {
          "internalType": "bytes32",
          "name": "",
          "type": "bytes32"
        }
      ],
      "name": "anchoredEvents",
      "outputs": [
        {
          "internalType": "bytes32",
          "name": "eventHash",
          "type": "bytes32"
        },
        {
          "internalType": "enum ProcurementRegistry.EventType",
          "name": "eventType",
          "type": "uint8"
        },
        {
          "internalType": "uint256",
          "name": "anchoredAt",
          "type": "uint256"
        },
        {
          "internalType": "bool",
          "name": "exists",
          "type": "bool"
        }
      ],
      "stateMutability": "view",
      "type": "function"
    },
    {
      "inputs": [],
      "name": "eventCount",
      "outputs": [
        {
          "internalType": "uint256",
          "name": "",
          "type": "uint256"
        }
      ],
      "stateMutability": "view",
      "type": "function"
    },
    {
      "inputs": [
        {
          "internalType": "bytes32",
          "name": "",
          "type": "bytes32"
        },
        {
          "internalType": "uint256",
          "name": "",
          "type": "uint256"
        }
      ],
      "name": "eventHistory",
      "outputs": [
        {
          "internalType": "bytes32",
          "name": "",
          "type": "bytes32"
        }
      ],
      "stateMutability": "view",
      "type": "function"
    },
    {
      "inputs": [
        {
          "internalType": "bytes32",
          "name": "_procurementId",
          "type": "bytes32"
        }
      ],
      "name": "getEventCount",
      "outputs": [
        {
          "internalType": "uint256",
          "name": "",
          "type": "uint256"
        }
      ],
      "stateMutability": "view",
      "type": "function"
    },
    {
      "inputs": [
        {
          "internalType": "bytes32",
          "name": "_procurementId",
          "type": "bytes32"
        },
        {
          "internalType": "bytes32",
          "name": "_eventHash",
          "type": "bytes32"
        }
      ],
      "name": "getEventDetail",
      "outputs": [
        {
          "internalType": "enum ProcurementRegistry.EventType",
          "name": "eventType",
          "type": "uint8"
        },
        {
          "internalType": "uint256",
          "name": "anchoredAt",
          "type": "uint256"
        },
        {
          "internalType": "bool",
          "name": "exists",
          "type": "bool"
        }
      ],
      "stateMutability": "view",
      "type": "function"
    },
    {
      "inputs": [
        {
          "internalType": "bytes32",
          "name": "_procurementId",
          "type": "bytes32"
        },
        {
          "internalType": "uint256",
          "name": "_index",
          "type": "uint256"
        }
      ],
      "name": "getEventHashAtIndex",
      "outputs": [
        {
          "internalType": "bytes32",
          "name": "",
          "type": "bytes32"
        }
      ],
      "stateMutability": "view",
      "type": "function"
    },
    {
      "inputs": [],
      "name": "owner",
      "outputs": [
        {
          "internalType": "address",
          "name": "",
          "type": "address"
        }
      ],
      "stateMutability": "view",
      "type": "function"
    },
    {
      "inputs": [],
      "name": "procurementCount",
      "outputs": [
        {
          "internalType": "uint256",
          "name": "",
          "type": "uint256"
        }
      ],
      "stateMutability": "view",
      "type": "function"
    },
    {
      "inputs": [
        {
          "internalType": "bytes32",
          "name": "",
          "type": "bytes32"
        }
      ],
      "name": "procurements",
      "outputs": [
        {
          "internalType": "bytes32",
          "name": "id",
          "type": "bytes32"
        },
        {
          "internalType": "string",
          "name": "title",
          "type": "string"
        },
        {
          "internalType": "uint256",
          "name": "abc",
          "type": "uint256"
        },
        {
          "internalType": "uint256",
          "name": "registeredAt",
          "type": "uint256"
        },
        {
          "internalType": "bool",
          "name": "exists",
          "type": "bool"
        }
      ],
      "stateMutability": "view",
      "type": "function"
    },
    {
      "inputs": [
        {
          "internalType": "bytes32",
          "name": "_id",
          "type": "bytes32"
        },
        {
          "internalType": "string",
          "name": "_title",
          "type": "string"
        },
        {
          "internalType": "uint256",
          "name": "_abc",
          "type": "uint256"
        }
      ],
      "name": "registerProcurement",
      "outputs": [],
      "stateMutability": "nonpayable",
      "type": "function"
    },
    {
      "inputs": [
        {
          "internalType": "address",
          "name": "_newOwner",
          "type": "address"
        }
      ],
      "name": "transferOwnership",
      "outputs": [],
      "stateMutability": "nonpayable",
      "type": "function"
    },
    {
      "inputs": [
        {
          "internalType": "bytes32",
          "name": "_procurementId",
          "type": "bytes32"
        },
        {
          "internalType": "bytes32",
          "name": "_eventHash",
          "type": "bytes32"
        }
      ],
      "name": "verifyEvent",
      "outputs": [
        {
          "internalType": "bool",
          "name": "",
          "type": "bool"
        }
      ],
      "stateMutability": "view",
      "type": "function"
    }
  ],
  "bytecode": "0x608060405234801561001057600080fd5b50600080546001600160a01b03191633179055610dee806100326000396000f3fe608060405234801561001057600080fd5b50600436106100cf5760003560e01c80638da5cb5b1161008c578063f2fde38b11610066578063f2fde38b1461021b578063f33bfc621461022e578063fc6d0f0914610252578063fef6be9e1461025b57600080fd5b80638da5cb5b1461018c578063b09227ce146101b7578063c48a21b11461020857600080fd5b80630c2e4968146100d45780632ed8dcf71461011a578063389f591d1461014857806357a805391461015d57806371be2e4a1461017057806386474ecb14610179575b600080fd5b6101056100e236600461094d565b600091825260026020908152604080842092845291905290206003015460ff1690565b60405190151581526020015b60405180910390f35b61013a61012836600461096f565b60009081526003602052604090205490565b604051908152602001610111565b61015b610156366004610988565b6102b0565b005b61013a61016b36600461094d565b6104d7565b61013a60055481565b61015b610187366004610a0a565b610578565b60005461019f906001600160a01b031681565b6040516001600160a01b039091168152602001610111565b6101f96101c536600461094d565b6000918252600260208181526040808520938552929052912060018101549181015460039091015460ff9283169391921690565b60405161011193929190610a7f565b61013a61021636600461094d565b6107a8565b61015b610229366004610aa3565b6107d9565b61024161023c36600461096f565b610892565b604051610111959493929190610ad3565b61013a60045481565b6102a061026936600461094d565b600260208181526000938452604080852090915291835291208054600182015492820154600390920154909260ff90811692911684565b6040516101119493929190610b41565b6000546001600160a01b031633146102e35760405162461bcd60e51b81526004016102da90610b6c565b60405180910390fd5b60008481526001602052604090206004015460ff16156103615760405162461bcd60e51b815260206004820152603360248201527f50726f637572656d656e7452656769737472793a2070726f637572656d656e7460448201527208185b1c9958591e481c9959da5cdd195c9959606a1b60648201526084016102da565b600081116103cc5760405162461bcd60e51b815260206004820152603260248201527f50726f637572656d656e7452656769737472793a20414243206d7573742062656044820152712067726561746572207468616e207a65726f60701b60648201526084016102da565b6040518060a0016040528085815260200184848080601f016020809104026020016040519081016040528093929190818152602001838380828437600092018290525093855250505060208083018590524260408085019190915260016060909401849052888352838252909120835181559083015190918201906104519082610c59565b5060408201516002820155606082015160038201556080909101516004918201805460ff1916911515919091179055805490600061048e83610d19565b9190505550837f922e22d50443e32e1db2e1950ad7fd475c676d42eaf49aa7b3493289420f8d98848484426040516104c99493929190610d40565b60405180910390a250505050565b60008281526003602052604081205482106105455760405162461bcd60e51b815260206004820152602860248201527f50726f637572656d656e7452656769737472793a20696e646578206f7574206f6044820152676620626f756e647360c01b60648201526084016102da565b600083815260036020526040902080548390811061056557610565610d80565b9060005260206000200154905092915050565b6000546001600160a01b031633146105a25760405162461bcd60e51b81526004016102da90610b6c565b600083815260016020526040902060040154839060ff1661061d5760405162461bcd60e51b815260206004820152602f60248201527f50726f637572656d656e7452656769737472793a2070726f637572656d656e7460448201526e08191bd95cc81b9bdd08195e1a5cdd608a1b60648201526084016102da565b600084815260026020908152604080832086845290915290206003015460ff161561069e5760405162461bcd60e51b815260206004820152602b60248201527f50726f637572656d656e7452656769737472793a206576656e7420616c72656160448201526a191e48185b98da1bdc995960aa1b60648201526084016102da565b60405180608001604052808481526020018360068111156106c1576106c1610a47565b815242602080830191909152600160409283018190526000888152600283528381208882528352929092208351815590830151818301805492939192909160ff199091169083600681111561071857610718610a47565b021790555060408281015160028301556060909201516003918201805460ff191691151591909117905560008681526020918252918220805460018101825590835290822001849055600580549161076f83610d19565b9190505550837f14abde2309714526b2b4605818411b283667d333ce1dce3daa7584ac42f127378484426040516104c993929190610d96565b600360205281600052604060002081815481106107c457600080fd5b90600052602060002001600091509150505481565b6000546001600160a01b031633146108035760405162461bcd60e51b81526004016102da90610b6c565b6001600160a01b0381166108705760405162461bcd60e51b815260206004820152602e60248201527f50726f637572656d656e7452656769737472793a206e6577206f776e6572206960448201526d73207a65726f206164647265737360901b60648201526084016102da565b600080546001600160a01b0319166001600160a01b0392909216919091179055565b6001602081905260009182526040909120805491810180546108b390610bce565b80601f01602080910402602001604051908101604052809291908181526020018280546108df90610bce565b801561092c5780601f106109015761010080835404028352916020019161092c565b820191906000526020600020905b81548152906001019060200180831161090f57829003601f168201915b50505050600283015460038401546004909401549293909290915060ff1685565b6000806040838503121561096057600080fd5b50508035926020909101359150565b60006020828403121561098157600080fd5b5035919050565b6000806000806060858703121561099e57600080fd5b84359350602085013567ffffffffffffffff808211156109bd57600080fd5b818701915087601f8301126109d157600080fd5b8135818111156109e057600080fd5b8860208285010111156109f257600080fd5b95986020929092019750949560400135945092505050565b600080600060608486031215610a1f57600080fd5b8335925060208401359150604084013560078110610a3c57600080fd5b809150509250925092565b634e487b7160e01b600052602160045260246000fd5b60078110610a7b57634e487b7160e01b600052602160045260246000fd5b9052565b60608101610a8d8286610a5d565b8360208301528215156040830152949350505050565b600060208284031215610ab557600080fd5b81356001600160a01b0381168114610acc57600080fd5b9392505050565b8581526000602060a0602084015286518060a085015260005b81811015610b085788810183015185820160c001528201610aec565b50600060c0828601015260c0601f19601f8301168501019250505084604083015283606083015282151560808301529695505050505050565b84815260808101610b556020830186610a5d565b836040830152821515606083015295945050505050565b6020808252602c908201527f50726f637572656d656e7452656769737472793a2063616c6c6572206973206e60408201526b37ba103a34329037bbb732b960a11b606082015260800190565b634e487b7160e01b600052604160045260246000fd5b600181811c90821680610be257607f821691505b602082108103610c0257634e487b7160e01b600052602260045260246000fd5b50919050565b601f821115610c54576000816000526020600020601f850160051c81016020861015610c315750805b601f850160051c820191505b81811015610c5057828155600101610c3d565b5050505b505050565b815167ffffffffffffffff811115610c7357610c73610bb8565b610c8781610c818454610bce565b84610c08565b602080601f831160018114610cbc5760008415610ca45750858301515b600019600386901b1c1916600185901b178555610c50565b600085815260208120601f198616915b82811015610ceb57888601518255948401946001909101908401610ccc565b5085821015610d095787850151600019600388901b60f8161c191681555b5050505050600190811b01905550565b600060018201610d3957634e487b7160e01b600052601160045260246000fd5b5060010190565b606081528360608201528385608083013760006080858301015260006080601f19601f870116830101905083602083015282604083015295945050505050565b634e487b7160e01b600052603260045260246000fd5b83815260608101610daa6020830185610a5d565b82604083015294935050505056fea2646970667358221220569f0d2134c7bb59fc7536b31247d82270749c0d808517c9b98cfcce87a6732f64736f6c63430008180033",
  "linkReferences": {},
  "deployedLinkReferences": {}
}