{
  "_format": "hh-sol-artifact-1",
  "contractName": "PaymentTracker",
  "sourceName": "contracts/PaymentTracker.sol",
  "abi": [
    {
      "inputs": [],
      "stateMutability": "nonpayable",
      "type": "constructor"
    },
    {
      "anonymous": false,
      "inputs": [
        {
          "indexed": true,
          "internalType": "bytes32",
          "name": "contractId",
          "type": "bytes32"
        },
        {
          "indexed": false,
          "internalType": "uint256",
          "name": "totalPaid",
          "type": "uint256"
        }
      ],
      "name": "ContractCompleted",
      "type": "event"
    },
    {
      "anonymous": false,
      "inputs": [
        {
          "indexed": true,
          "internalType": "bytes32",
          "name": "contractId",
          "type": "bytes32"
        },
        {
          "indexed": true,
          "internalType": "bytes32",
          "name": "procurementId",
          "type": "bytes32"
        },
        {
          "indexed": false,
          "internalType": "address",
          "name": "vendor",
          "type": "address"
        },
        {
          "indexed": false,
          "internalType": "uint256",
          "name": "totalAmount",
          "type": "uint256"
        }
      ],
      "name": "ContractRegistered",
      "type": "event"
    },
    {
      "anonymous": false,
      "inputs": [
        {
          "indexed": true,
          "internalType": "bytes32",
          "name": "contractId",
          "type": "bytes32"
        },
        {
          "indexed": false,
          "internalType": "uint8",
          "name": "milestoneIndex",
          "type": "uint8"
        },
        {
          "indexed": false,
          "internalType": "string",
          "name": "description",
          "type": "string"
        },
        {
          "indexed": false,
          "internalType": "uint256",
          "name": "amount",
          "type": "uint256"
        }
      ],
      "name": "MilestoneAdded",
      "type": "event"
    },
    {
      "anonymous": false,
      "inputs": [
        {
          "indexed": true,
          "internalType": "bytes32",
          "name": "contractId",
          "type": "bytes32"
        },
        {
          "indexed": false,
          "internalType": "uint8",
          "name": "milestoneIndex",
          "type": "uint8"
        },
        {
          "indexed": false,
          "internalType": "uint256",
          "name": "amount",
          "type": "uint256"
        },
        {
          "indexed": false,
          "internalType": "uint256",
          "name": "totalPaid",
          "type": "uint256"
        }
      ],
      "name": "PaymentRecorded",
      "type": "event"
    },
    {
      "inputs": [
        {
          "internalType": "bytes32",
          "name": "_contractId",
          "type": "bytes32"
        },
        {
          "internalType": "string",
          "name": "_description",
          "type": "string"
        },
        {
          "internalType": "uint256",
          "name": "_amount",
          "type": "uint256"
        }
      ],
      "name": "addMilestone",
      "outputs": [],
      "stateMutability": "nonpayable",
      "type": "function"
    },
    {
      "inputs": [],
      "name": "contractCount",
      "outputs": [
        {
          "internalType": "uint256",
          "name": "",
          "type": "uint256"
        }
      ],
      "stateMutability": "view",
      "type": "function"
    },
    {
      "inputs": [
        {
          "internalType": "bytes32",
          "name": "",
          "type": "bytes32"
        }
      ],
      "name": "contracts",
      "outputs": [
        {
          "internalType": "bytes32",
          "name": "contractId",
          "type": "bytes32"
        },
        {
          "internalType": "bytes32",
          "name": "procurementId",
          "type": "bytes32"
        },
        {
          "internalType": "address",
          "name": "vendor",
          "type": "address"
        },
        {
          "internalType": "uint256",
          "name": "totalAmount",
          "type": "uint256"
        },
        {
          "internalType": "uint256",
          "name": "totalPaid",
          "type": "uint256"
        },
        {
          "internalType": "bool",
          "name": "completed",
          "type": "bool"
        },
        {
          "internalType": "bool",
          "name": "exists",
          "type": "bool"
        },
        {
          "internalType": "uint8",
          "name": "milestoneCount",
          "type": "uint8"
        }
      ],
      "stateMutability": "view",
      "type": "function"
    },
    {
      "inputs": [
        {
          "internalType": "bytes32",
          "name": "_contractId",
          "type": "bytes32"
        }
      ],
      "name": "getContractStatus",
      "outputs": [
        {
          "internalType": "uint256",
          "name": "total",
          "type": "uint256"
        },
        {
          "internalType": "uint256",
          "name": "paid",
          "type": "uint256"
        },
        {
          "internalType": "bool",
          "name": "completed",
          "type": "bool"
        }
      ],
      "stateMutability": "view",
      "type": "function"
    },
    {
      "inputs": [
        {
          "internalType": "bytes32",
          "name": "_contractId",
          "type": "bytes32"
        },
        {
          "internalType": "uint8",
          "name": "_milestoneIndex",
          "type": "uint8"
        }
      ],
      "name": "getMilestone",
      "outputs": [
        {
          "internalType": "string",
          "name": "description",
          "type": "string"
        },
        {
          "internalType": "uint256",
          "name": "amount",
          "type": "uint256"
        },
        {
          "internalType": "uint256",
          "name": "paidAmount",
          "type": "uint256"
        },
        {
          "internalType": "bool",
          "name": "fullyPaid",
          "type": "bool"
        }
      ],
      "stateMutability": "view",
      "type": "function"
    },
    {
      "inputs": [
        {
          "internalType": "bytes32",
          "name": "_contractId",
          "type": "bytes32"
        }
      ],
      "name": "getMilestoneCount",
      "outputs": [
        {
          "internalType": "uint8",
          "name": "",
          "type": "uint8"
        }
      ],
      "stateMutability": "view",
      "type": "function"
    },
    {
      "inputs": [
        {
          "internalType": "bytes32",
          "name": "",
          "type": "bytes32"
        },
        {
          "internalType": "uint8",
          "name": "",
          "type": "uint8"
        }
      ],
      "name": "milestones",
      "outputs": [
        {
          "internalType": "string",
          "name": "description",
          "type": "string"
        },
        {
          "internalType": "uint256",
          "name": "amount",
          "type": "uint256"
        },
        {
          "internalType": "uint256",
          "name": "paidAmount",
          "type": "uint256"
        },
        {
          "internalType": "bool",
          "name": "fullyPaid",
          "type": "bool"
        }
      ],
      "stateMutability": "view",
      "type": "function"
    },
    {
      "inputs": [],
      "name": "owner",
      "outputs": [
        {
          "internalType": "address",
          "name": "",
          "type": "address"
        }
      ],
      "stateMutability": "view",
      "type": "function"
    },
    {
      "inputs": [
        {
          "internalType": "bytes32",
          "name": "_contractId",
          "type": "bytes32"
        },
        {
          "internalType": "uint8",
          "name": "_milestoneIndex",
          "type": "uint8"
        },
        {
          "internalType": "uint256",
          "name": "_amount",
          "type": "uint256"
        }
      ],
      "name": "recordPayment",
      "outputs": [],
      "stateMutability": "nonpayable",
      "type": "function"
    },
    {
      "inputs": [
        {
          "internalType": "bytes32",
          "name": "_contractId",
          "type": "bytes32"
        },
        {
          "internalType": "bytes32",
          "name": "_procurementId",
          "type": "bytes32"
        },
        {
          "internalType": "address",
          "name": "_vendor",
          "type": "address"
        },
        {
          "internalType": "uint256",
          "name": "_totalAmount",
          "type": "uint256"
        }
      ],
      "name": "registerContract",
      "outputs": [],
      "stateMutability": "nonpayable",
      "type": "function"
    },
    {
      "inputs": [],
      "name": "totalPaymentsRecorded",
      "outputs": [
        {
          "internalType": "uint256",
          "name": "",
          "type": "uint256"
        }
      ],
      "stateMutability": "view",
      "type": "function"
    },
    {
      "inputs": [
        {
          "internalType": "address",
          "name": "_newOwner",
          "type": "address"
        }
      ],
      "name": "transferOwnership",
      "outputs": [],
      "stateMutability": "nonpayable",
      "type": "function"
    }
  ],
  "bytecode": "0x608060405234801561001057600080fd5b50600080546001600160a01b03191633179055611427806100326000396000f3fe608060405234801561001057600080fd5b50600436106100b45760003560e01c80638736381a116100715780638736381a146101715780638da5cb5b14610188578063929740d4146101b35780639e59d9eb146101c6578063ec56a373146101cf578063f2fde38b1461028157600080fd5b80630a0dce7c146100b957806312561816146100e3578063633e1f9e146101065780636e3bdb501461011b578063722550631461012e5780637f814c6e14610141575b600080fd5b6100cc6100c7366004610eda565b610294565b60405160ff90911681526020015b60405180910390f35b6100f66100f1366004610f09565b6102f2565b6040516100da9493929190610f35565b610119610114366004610f9a565b61043f565b005b6100f6610129366004610f09565b6107f9565b61011961013c366004610fcf565b6108b9565b61015461014f366004610eda565b610ae9565b6040805193845260208401929092521515908201526060016100da565b61017a60035481565b6040519081526020016100da565b60005461019b906001600160a01b031681565b6040516001600160a01b0390911681526020016100da565b6101196101c1366004611068565b610b43565b61017a60045481565b6102336101dd366004610eda565b600160208190526000918252604090912080549181015460028201546003830154600484015460059094015492936001600160a01b039092169290919060ff808216916101008104821691620100009091041688565b6040805198895260208901979097526001600160a01b039095169587019590955260608601929092526080850152151560a084015290151560c083015260ff1660e0820152610100016100da565b61011961028f3660046110a5565b610e26565b600081815260016020526040812060050154610100900460ff166102d35760405162461bcd60e51b81526004016102ca906110c7565b60405180910390fd5b5060009081526001602052604090206005015462010000900460ff1690565b6000828152600160205260408120600501546060919081908190610100900460ff166103305760405162461bcd60e51b81526004016102ca906110c7565b60008681526001602052604090206005015460ff6201000090910481169086161061036d5760405162461bcd60e51b81526004016102ca9061110e565b600086815260026020818152604080842060ff808b168652925290922060018101549181015460038201548254929485949391169084906103ad90611155565b80601f01602080910402602001604051908101604052809291908181526020018280546103d990611155565b80156104265780601f106103fb57610100808354040283529160200191610426565b820191906000526020600020905b81548152906001019060200180831161040957829003601f168201915b5050505050935094509450945094505092959194509250565b6000546001600160a01b031633146104695760405162461bcd60e51b81526004016102ca9061118f565b6000838152600160205260409020600501548390610100900460ff166104a15760405162461bcd60e51b81526004016102ca906110c7565b6000848152600160205260409020600581015460ff16156104d45760405162461bcd60e51b81526004016102ca906111d6565b600581015460ff620100009091048116908516106105045760405162461bcd60e51b81526004016102ca9061110e565b600083116105675760405162461bcd60e51b815260206004820152602a60248201527f5061796d656e74547261636b65723a207061796d656e7420616d6f756e74206d6044820152690757374206265203e20360b41b60648201526084016102ca565b600085815260026020908152604080832060ff808916855292529091206003810154909116156105ee5760405162461bcd60e51b815260206004820152602c60248201527f5061796d656e74547261636b65723a206d696c6573746f6e6520616c7265616460448201526b1e48199d5b1b1e481c185a5960a21b60648201526084016102ca565b80600101548482600201546106039190611236565b111561066a5760405162461bcd60e51b815260206004820152603060248201527f5061796d656e74547261636b65723a207061796d656e7420657863656564732060448201526f1b5a5b195cdd1bdb9948185b5bdd5b9d60821b60648201526084016102ca565b8381600201600082825461067e9190611236565b909155505060018101546002820154036106a25760038101805460ff191660011790555b838260040160008282546106b69190611236565b90915550506003820154600483015411156107315760405162461bcd60e51b815260206004820152603560248201527f5061796d656e74547261636b65723a20746f74616c207061796d656e747320656044820152741e18d959590818dbdb9d1c9858dd08185b5bdd5b9d605a1b60648201526084016102ca565b600480549060006107418361124f565b919050555081600301548260040154036107a55760058201805460ff19166001179055600482015460405187917fd55c0123e71a5f5cc4d5a625f4fab23f4b3a4e6803b34d7ae500dc3dcd3c905f9161079c91815260200190565b60405180910390a25b60048201546040805160ff88168152602081018790529081019190915286907fb4ca12504fbda871f267623a9354324dff8a2a0d654ca15af7dfaac6d051c7609060600160405180910390a2505050505050565b600260209081526000928352604080842090915290825290208054819061081f90611155565b80601f016020809104026020016040519081016040528092919081815260200182805461084b90611155565b80156108985780601f1061086d57610100808354040283529160200191610898565b820191906000526020600020905b81548152906001019060200180831161087b57829003601f168201915b50505050600183015460028401546003909401549293909290915060ff1684565b6000546001600160a01b031633146108e35760405162461bcd60e51b81526004016102ca9061118f565b6000848152600160205260409020600501548490610100900460ff1661091b5760405162461bcd60e51b81526004016102ca906110c7565b6000858152600160205260409020600581015460ff161561094e5760405162461bcd60e51b81526004016102ca906111d6565b600083116109b35760405162461bcd60e51b815260206004820152602c60248201527f5061796d656e74547261636b65723a206d696c6573746f6e6520616d6f756e7460448201526b0206d757374206265203e20360a41b60648201526084016102ca565b6005810154604080516020601f880181900402810160a0908101909252608081018781526201000090930460ff16929091829190899089908190850183828082843760009201829052509385525050506020808301889052604080840183905260609093018290528a82526002815282822060ff8616835290522081518190610a3c90826112cf565b506020820151600182015560408201516002808301919091556060909201516003909101805460ff191691151591909117905560058301805460ff620100009091041691610a898361138f565b91906101000a81548160ff021916908360ff16021790555050867f26edca9d318f10ef73ab3050801d0536ce792c9d61cba4b10df2b03bf167102a82888888604051610ad894939291906113ae565b60405180910390a250505050505050565b6000818152600160205260408120600581015482918291610100900460ff16610b245760405162461bcd60e51b81526004016102ca906110c7565b60038101546004820154600590920154909691955060ff169350915050565b6000546001600160a01b03163314610b6d5760405162461bcd60e51b81526004016102ca9061118f565b600084815260016020526040902060050154610100900460ff1615610be85760405162461bcd60e51b815260206004820152602b60248201527f5061796d656e74547261636b65723a20636f6e747261637420616c726561647960448201526a081c9959da5cdd195c995960aa1b60648201526084016102ca565b6001600160a01b038216610c4d5760405162461bcd60e51b815260206004820152602660248201527f5061796d656e74547261636b65723a2076656e646f72206973207a65726f206160448201526564647265737360d01b60648201526084016102ca565b60008111610ca85760405162461bcd60e51b815260206004820152602260248201527f5061796d656e74547261636b65723a20616d6f756e74206d757374206265203e604482015261020360f41b60648201526084016102ca565b604051806101000160405280858152602001848152602001836001600160a01b0316815260200182815260200160008152602001600015158152602001600115158152602001600060ff1681525060016000868152602001908152602001600020600082015181600001556020820151816001015560408201518160020160006101000a8154816001600160a01b0302191690836001600160a01b03160217905550606082015181600301556080820151816004015560a08201518160050160006101000a81548160ff02191690831515021790555060c08201518160050160016101000a81548160ff02191690831515021790555060e08201518160050160026101000a81548160ff021916908360ff16021790555090505060036000815480929190610dd59061124f565b9091555050604080516001600160a01b038416815260208101839052849186917f910eddeb043d2d6791f0527f844f56d54c0cc862636fae0b16d5716899dbb3c0910160405180910390a350505050565b6000546001600160a01b03163314610e505760405162461bcd60e51b81526004016102ca9061118f565b6001600160a01b038116610eb85760405162461bcd60e51b815260206004820152602960248201527f5061796d656e74547261636b65723a206e6577206f776e6572206973207a65726044820152686f206164647265737360b81b60648201526084016102ca565b600080546001600160a01b0319166001600160a01b0392909216919091179055565b600060208284031215610eec57600080fd5b5035919050565b803560ff81168114610f0457600080fd5b919050565b60008060408385031215610f1c57600080fd5b82359150610f2c60208401610ef3565b90509250929050565b608081526000855180608084015260005b81811015610f6357602081890181015160a0868401015201610f46565b50600060a0828501015260a0601f19601f830116840101915050846020830152836040830152821515606083015295945050505050565b600080600060608486031215610faf57600080fd5b83359250610fbf60208501610ef3565b9150604084013590509250925092565b60008060008060608587031215610fe557600080fd5b84359350602085013567ffffffffffffffff8082111561100457600080fd5b818701915087601f83011261101857600080fd5b81358181111561102757600080fd5b88602082850101111561103957600080fd5b95986020929092019750949560400135945092505050565b80356001600160a01b0381168114610f0457600080fd5b6000806000806080858703121561107e57600080fd5b843593506020850135925061109560408601611051565b9396929550929360600135925050565b6000602082840312156110b757600080fd5b6110c082611051565b9392505050565b60208082526027908201527f5061796d656e74547261636b65723a20636f6e747261637420646f6573206e6f6040820152661d08195e1a5cdd60ca1b606082015260800190565b60208082526027908201527f5061796d656e74547261636b65723a20696e76616c6964206d696c6573746f6e6040820152660ca40d2dcc8caf60cb1b606082015260800190565b600181811c9082168061116957607f821691505b60208210810361118957634e487b7160e01b600052602260045260246000fd5b50919050565b60208082526027908201527f5061796d656e74547261636b65723a2063616c6c6572206973206e6f74207468604082015266329037bbb732b960c91b606082015260800190565b6020808252602a908201527f5061796d656e74547261636b65723a20636f6e747261637420616c72656164796040820152690818dbdb5c1b195d195960b21b606082015260800190565b634e487b7160e01b600052601160045260246000fd5b8082018082111561124957611249611220565b92915050565b60006001820161126157611261611220565b5060010190565b634e487b7160e01b600052604160045260246000fd5b601f8211156112ca576000816000526020600020601f850160051c810160208610156112a75750805b601f850160051c820191505b818110156112c6578281556001016112b3565b5050505b505050565b815167ffffffffffffffff8111156112e9576112e9611268565b6112fd816112f78454611155565b8461127e565b602080601f831160018114611332576000841561131a5750858301515b600019600386901b1c1916600185901b1785556112c6565b600085815260208120601f198616915b8281101561136157888601518255948401946001909101908401611342565b508582101561137f5787850151600019600388901b60f8161c191681555b5050505050600190811b01905550565b600060ff821660ff81036113a5576113a5611220565b60010192915050565b60ff85168152606060208201528260608201528284608083013760006080848301015260006080601f19601f86011683010190508260408301529594505050505056fea264697066735822122015c71b759e8a3904d2807fcefc67defa1277a8e807817a42e5d02da1d53722e264736f6c63430008180033",
  "linkReferences": {},
  "deployedLinkReferences": {}
}