{"contracts/BidManager.sol":{"BidManager":{"abi":[{"inputs":[],"stateMutability":"nonpayable","type":"constructor"},{"anonymous":false,"inputs":[{"indexed":true,"internalType":"bytes32","name":"procurementId","type":"bytes32"},{"indexed":true,"internalType":"address","name":"bidder","type":"address"},{"indexed":false,"internalType":"uint256","name":"amount","type":"uint256"},{"indexed":false,"internalType":"bool","name":"compliant","type":"bool"}],"name":"BidRevealed","type":"event"},{"anonymous":false,"inputs":[{"indexed":true,"internalType":"bytes32","name":"procurementId","type":"bytes32"},{"indexed":false,"internalType":"uint256","name":"totalBids","type":"uint256"}],"name":"BiddingClosed","type":"event"},{"anonymous":false,"inputs":[{"indexed":true,"internalType":"bytes32","name":"procurementId","type":"bytes32"},{"indexed":false,"internalType":"uint256","name":"abc","type":"uint256"},{"indexed":false,"internalType":"uint256","name":"deadline","type":"uint256"}],"name":"BiddingOpened","type":"event"},{"anonymous":false,"inputs":[{"indexed":true,"internalType":"bytes32","name":"procurementId","type":"bytes32"},{"indexed":false,"internalType":"address","name":"winner","type":"address"},{"indexed":false,"internalType":"uint256","name":"amount","type":"uint256"}],"name":"LowestBidDetermined","type":"event"},{"anonymous":false,"inputs":[{"indexed":true,"internalType":"bytes32","name":"procurementId","type":"bytes32"},{"indexed":true,"internalType":"address","name":"bidder","type":"address"},{"indexed":false,"internalType":"bytes32","name":"commitHash","type":"bytes32"}],"name":"SealedBidSubmitted","type":"event"},{"inputs":[{"internalType":"bytes32","name":"","type":"bytes32"},{"internalType":"address","name":"","type":"address"}],"name":"bids","outputs":[{"internalType":"bytes32","name":"commitHash","type":"bytes32"},{"internalType":"uint256","name":"revealedAmount","type":"uint256"},{"internalType":"bool","name":"committed","type":"bool"},{"internalType":"bool","name":"revealed","type":"bool"},{"internalType":"bool","name":"compliant","type":"bool"}],"stateMutability":"view","type":"function"},{"inputs":[{"internalType":"bytes32","name":"_procurementId","type":"bytes32"}],"name":"closeBidding","outputs":[],"stateMutability":"nonpayable","type":"function"},{"inputs":[{"internalType":"bytes32","name":"_procurementId","type":"bytes32"}],"name":"finalizeReveals","outputs":[],"stateMutability":"nonpayable","type":"function"},{"inputs":[{"internalType":"bytes32","name":"_procurementId","type":"bytes32"},{"internalType":"uint256","name":"_index","type":"uint256"}],"name":"getBidderAtIndex","outputs":[{"internalType":"address","name":"","type":"address"}],"stateMutability":"view","type":"function"},{"inputs":[{"internalType":"bytes32","name":"_procurementId","type":"bytes32"}],"name":"getBidderCount","outputs":[{"internalType":"uint256","name":"","type":"uint256"}],"stateMutability":"view","type":"function"},{"inputs":[{"internalType":"bytes32","name":"_procurementId","type":"bytes32"}],"name":"getLowestCompliantBid","outputs":[{"internalType":"address","name":"bidder","type":"address"},{"internalType":"uint256","name":"amount","type":"uint256"}],"stateMutability":"view","type":"function"},{"inputs":[{"internalType":"bytes32","name":"_procurementId","type":"bytes32"}],"name":"getSessionStatus","outputs":[{"internalType":"enum BidManager.BiddingStatus","name":"","type":"uint8"}],"stateMutability":"view","type":"function"},{"inputs":[{"internalType":"bytes32","name":"_procurementId","type":"bytes32"},{"internalType":"uint256","name":"_abc","type":"uint256"},{"internalType":"uint256","name":"_deadline","type":"uint256"}],"name":"openBidding","outputs":[],"stateMutability":"nonpayable","type":"function"},{"inputs":[],"name":"owner","outputs":[{"internalType":"address","name":"","type":"address"}],"stateMutability":"view","type":"function"},{"inputs":[{"internalType":"bytes32","name":"_procurementId","type":"bytes32"},{"internalType":"address","name":"_bidder","type":"address"},{"internalType":"uint256","name":"_amount","type":"uint256"},{"internalType":"bytes32","name":"_salt","type":"bytes32"}],"name":"revealBid","outputs":[],"stateMutability":"nonpayable","type":"function"},{"inputs":[{"internalType":"bytes32","name":"","type":"bytes32"}],"name":"sessions","outputs":[{"internalType":"bytes32","name":"procurementId","type":"bytes32"},{"internalType":"uint256","name":"abc","type":"uint256"},{"internalType":"uint256","name":"deadline","type":"uint256"},{"internalType":"enum BidManager.BiddingStatus","name":"status","type":"uint8"},{"internalType":"address","name":"lowestBidder","type":"address"},{"internalType":"uint256","name":"lowestAmount","type":"uint256"},{"internalType":"bool","name":"exists","type":"bool"}],"stateMutability":"view","type":"function"},{"inputs":[{"internalType":"bytes32","name":"_procurementId","type":"bytes32"},{"internalType":"bytes32","name":"_commitHash","type":"bytes32"}],"name":"submitSealedBid","outputs":[],"stateMutability":"nonpayable","type":"function"},{"inputs":[{"internalType":"address","name":"_newOwner","type":"address"}],"name":"transferOwnership","outputs":[],"stateMutability":"nonpayable","type":"function"}],"evm":{"bytecode":{"linkReferences":{},"object":"608060405234801561001057600080fd5b50600080546001600160a01b031916331790556111f9806100326000396000f3fe608060405234801561001057600080fd5b50600436106100cf5760003560e01c80638da5cb5b1161008c578063d356738b11610066578063d356738b1461029f578063e38ba6bf146102b2578063e526a331146102e3578063f2fde38b146102f657600080fd5b80638da5cb5b1461022e578063abbb6bf614610259578063bf9349dc1461028c57600080fd5b8063190ba29c146100d4578063351bacd4146100e95780633599b57e1461012057806366e929bf146101335780636a279bbb146101af5780637dbd2832146101c2575b600080fd5b6100e76100e2366004610fa7565b610309565b005b6100fc6100f7366004610fe2565b610637565b604080516001600160a01b0390931683526020830191909152015b60405180910390f35b6100e761012e366004610fe2565b61068b565b61017f610141366004610ffb565b6002602081815260009384526040808520909152918352912080546001820154919092015460ff808216916101008104821691620100009091041685565b6040805195865260208601949094529115159284019290925290151560608301521515608082015260a001610117565b6100e76101bd366004610fe2565b6107d3565b61021b6101d0366004610fe2565b600160208190526000918252604090912080549181015460028201546003830154600584015460068501546007909501549394929360ff928316936001600160a01b03909216921687565b604051610117979695949392919061105f565b600054610241906001600160a01b031681565b6040516001600160a01b039091168152602001610117565b61027f610267366004610fe2565b60009081526001602052604090206003015460ff1690565b60405161011791906110aa565b6100e761029a3660046110b8565b6108dc565b6102416102ad3660046110b8565b610b3d565b6102d56102c0366004610fe2565b60009081526001602052604090206004015490565b604051908152602001610117565b6100e76102f13660046110da565b610bde565b6100e7610304366004611106565b610e61565b6000546001600160a01b0316331461033c5760405162461bcd60e51b815260040161033390611128565b60405180910390fd5b6000848152600160205260409020600781015460ff1661036e5760405162461bcd60e51b81526004016103339061116b565b600260038083015460ff169081111561038957610389611027565b146103e75760405162461bcd60e51b815260206004820152602860248201527f4269644d616e616765723a2062696464696e67206d75737420626520636c6f73604482015267195908199a5c9cdd60c21b6064820152608401610333565b60008581526002602081815260408084206001600160a01b03891685529091529091209081015460ff1661045d5760405162461bcd60e51b815260206004820152601f60248201527f4269644d616e616765723a206e6f207365616c65642062696420666f756e64006044820152606401610333565b6002810154610100900460ff16156104b75760405162461bcd60e51b815260206004820181905260248201527f4269644d616e616765723a2062696420616c72656164792072657665616c65646044820152606401610333565b60408051602080820187905281830186905282518083038401815260609092019092528051910120815481146105425760405162461bcd60e51b815260206004820152602a60248201527f4269644d616e616765723a20636f6d6d69746d656e74207665726966696361746044820152691a5bdb8819985a5b195960b21b6064820152608401610333565b60028201805461ff0019166101001790556001828101869055830154851180159061056d5750600085115b60028301805462ff00001916620100009215158302179081905560ff91900416156105d95760058301546001600160a01b031615806105af5750826006015485105b156105d9576005830180546001600160a01b0319166001600160a01b038816179055600683018590555b6002820154604080518781526201000090920460ff16151560208301526001600160a01b0388169189917f83e16818fea71fc3d57b93d8e876ad0572956c5a3b45d5c3a16b870097331e66910160405180910390a350505050505050565b6000818152600160205260408120600781015482919060ff1661066c5760405162461bcd60e51b81526004016103339061116b565b60058101546006909101546001600160a01b0390911694909350915050565b6000546001600160a01b031633146106b55760405162461bcd60e51b815260040161033390611128565b6000818152600160205260409020600781015460ff166106e75760405162461bcd60e51b81526004016103339061116b565b600260038083015460ff169081111561070257610702611027565b1461075a5760405162461bcd60e51b815260206004820152602260248201527f4269644d616e616765723a2062696464696e67206d75737420626520636c6f73604482015261195960f21b6064820152608401610333565b6003818101805460ff1916909117905560058101546001600160a01b0316156107cf5760058101546006820154604080516001600160a01b039093168352602083019190915283917fabbe0ff1de0f165abcf4de9a05c6739e1b6b5460f8b54369ac1b32535d49270e91015b60405180910390a25b5050565b6000546001600160a01b031633146107fd5760405162461bcd60e51b815260040161033390611128565b6000818152600160205260409020600781015460ff1661082f5760405162461bcd60e51b81526004016103339061116b565b600160038083015460ff169081111561084a5761084a611027565b146108975760405162461bcd60e51b815260206004820152601f60248201527f4269644d616e616765723a2062696464696e67206973206e6f74206f70656e006044820152606401610333565b60038101805460ff19166002179055600481015460405190815282907eeca519af3f7238a852ddab6c9befc27fb737e98c70a8b1f4a9f56dadaf8bcd906020016107c6565b6000828152600160205260409020600781015460ff1661090e5760405162461bcd60e51b81526004016103339061116b565b600160038083015460ff169081111561092957610929611027565b146109765760405162461bcd60e51b815260206004820152601f60248201527f4269644d616e616765723a2062696464696e67206973206e6f74206f70656e006044820152606401610333565b80600201544211156109d65760405162461bcd60e51b815260206004820152602360248201527f4269644d616e616765723a2062696464696e6720646561646c696e65207061736044820152621cd95960ea1b6064820152608401610333565b6000838152600260208181526040808420338552909152909120015460ff1615610a4e5760405162461bcd60e51b815260206004820152602360248201527f4269644d616e616765723a20616c7265616479207375626d6974746564206120604482015262189a5960ea1b6064820152608401610333565b6040805160a08101825283815260006020808301828152600184860181815260608601858152608087018681528b8752600280875289882033808a529088528a892099518a559551898601559251979092018054915192511515620100000262ff0000199315156101000261ff00199915159990991661ffff199093169290921797909717919091161790945560048601805494850181558352912090910180546001600160a01b03191682179055905184907f9bd5eb090716e4d26c7af9d2676756cc00df3516e00b084d3e35d815ab4f755e90610b309086815260200190565b60405180910390a3505050565b6000828152600160205260408120600401548210610b9d5760405162461bcd60e51b815260206004820152601f60248201527f4269644d616e616765723a20696e646578206f7574206f6620626f756e6473006044820152606401610333565b6000838152600160205260409020600401805483908110610bc057610bc06111ad565b6000918252602090912001546001600160a01b031690505b92915050565b6000546001600160a01b03163314610c085760405162461bcd60e51b815260040161033390611128565b60008381526001602052604090206007015460ff1615610c755760405162461bcd60e51b815260206004820152602260248201527f4269644d616e616765723a2073657373696f6e20616c72656164792065786973604482015261747360f01b6064820152608401610333565b60008211610cc55760405162461bcd60e51b815260206004820152601b60248201527f4269644d616e616765723a20414243206d757374206265203e203000000000006044820152606401610333565b428111610d275760405162461bcd60e51b815260206004820152602a60248201527f4269644d616e616765723a20646561646c696e65206d75737420626520696e206044820152697468652066757475726560b01b6064820152608401610333565b60408051610100810182528481526020808201858152828401858152600160608501818152865160008082528187018952608088019190915260a0870181905260c0870181905260e087018390528a81529482905295909320845181559151828401555160028201559251600380850180549495949293909260ff1916918490811115610db657610db6611027565b021790555060808201518051610dd6916004840191602090910190610f11565b5060a08201516005820180546001600160a01b0319166001600160a01b0390921691909117905560c0820151600682015560e0909101516007909101805460ff1916911515919091179055604080518381526020810183905284917f09159b8bcc1a884cc73fa6a5db07b4473f4169fd7b0010e792a6a63c30c195dc910160405180910390a2505050565b6000546001600160a01b03163314610e8b5760405162461bcd60e51b815260040161033390611128565b6001600160a01b038116610eef5760405162461bcd60e51b815260206004820152602560248201527f4269644d616e616765723a206e6577206f776e6572206973207a65726f206164604482015264647265737360d81b6064820152608401610333565b600080546001600160a01b0319166001600160a01b0392909216919091179055565b828054828255906000526020600020908101928215610f66579160200282015b82811115610f6657825182546001600160a01b0319166001600160a01b03909116178255602090920191600190910190610f31565b50610f72929150610f76565b5090565b5b80821115610f725760008155600101610f77565b80356001600160a01b0381168114610fa257600080fd5b919050565b60008060008060808587031215610fbd57600080fd5b84359350610fcd60208601610f8b565b93969395505050506040820135916060013590565b600060208284031215610ff457600080fd5b5035919050565b6000806040838503121561100e57600080fd5b8235915061101e60208401610f8b565b90509250929050565b634e487b7160e01b600052602160045260246000fd5b6004811061105b57634e487b7160e01b600052602160045260246000fd5b9052565b878152602081018790526040810186905260e08101611081606083018761103d565b6001600160a01b0394909416608082015260a0810192909252151560c090910152949350505050565b60208101610bd8828461103d565b600080604083850312156110cb57600080fd5b50508035926020909101359150565b6000806000606084860312156110ef57600080fd5b505081359360208301359350604090920135919050565b60006020828403121561111857600080fd5b61112182610f8b565b9392505050565b60208082526023908201527f4269644d616e616765723a2063616c6c6572206973206e6f7420746865206f776040820152623732b960e91b606082015260800190565b60208082526022908201527f4269644d616e616765723a2073657373696f6e20646f6573206e6f74206578696040820152611cdd60f21b606082015260800190565b634e487b7160e01b600052603260045260246000fdfea2646970667358221220f9db007078df9fbf697852ad2c04eb1b80ed43201f61ee892d138fbc5976e95064736f6c63430008180033","opcodes":"PUSH1 0x80 PUSH1 0x40 MSTORE CALLVALUE DUP1 ISZERO PUSH2 0x10 JUMPI PUSH1 0x0 DUP1 REVERT JUMPDEST POP PUSH1 0x0 DUP1 SLOAD PUSH1 0x1 PUSH1 0x1 PUSH1 0xA0 SHL SUB NOT AND CALLER OR SWAP1 SSTORE PUSH2 0x11F9 DUP1 PUSH2 0x32 PUSH1 0x0 CODECOPY PUSH1 0x0 RETURN INVALID PUSH1 0x80 PUSH1 0x40 MSTORE CALLVALUE DUP1 ISZERO PUSH2 0x10 JUMPI PUSH1 0x0 DUP1 REVERT JUMPDEST POP PUSH1 0x4 CALLDATASIZE LT PUSH2 0xCF JUMPI PUSH1 0x0 CALLDATALOAD PUSH1 0xE0 SHR DUP1 PUSH4 0x8DA5CB5B GT PUSH2 0x8C JUMPI DUP1 PUSH4 0xD356738B GT PUSH2 0x66 JUMPI DUP1 PUSH4 0xD356738B EQ PUSH2 0x29F JUMPI DUP1 PUSH4 0xE38BA6BF EQ PUSH2 0x2B2 JUMPI DUP1 PUSH4 0xE526A331 EQ PUSH2 0x2E3 JUMPI DUP1 PUSH4 0xF2FDE38B EQ PUSH2 0x2F6 JUMPI PUSH1 0x0 DUP1 REVERT JUMPDEST DUP1 PUSH4 0x8DA5CB5B EQ PUSH2 0x22E JUMPI DUP1 PUSH4 0xABBB6BF6 EQ PUSH2 0x259 JUMPI DUP1 PUSH4 0xBF9349DC EQ PUSH2 0x28C JUMPI PUSH1 0x0 DUP1 REVERT JUMPDEST DUP1 PUSH4 0x190BA29C EQ PUSH2 0xD4 JUMPI DUP1 PUSH4 0x351BACD4 EQ PUSH2 0xE9 JUMPI DUP1 PUSH4 0x3599B57E EQ PUSH2 0x120 JUMPI DUP1 PUSH4 0x66E929BF EQ PUSH2 0x133 JUMPI DUP1 PUSH4 0x6A279BBB EQ PUSH2 0x1AF JUMPI DUP1 PUSH4 0x7DBD2832 EQ PUSH2 0x1C2 JUMPI JUMPDEST PUSH1 0x0 DUP1 REVERT JUMPDEST PUSH2 0xE7 PUSH2 0xE2 CALLDATASIZE PUSH1 0x4 PUSH2 0xFA7 JUMP JUMPDEST PUSH2 0x309 JUMP JUMPDEST STOP JUMPDEST PUSH2 0xFC PUSH2 0xF7 CALLDATASIZE PUSH1 0x4 PUSH2 0xFE2 JUMP JUMPDEST PUSH2 0x637 JUMP JUMPDEST PUSH1 0x40 DUP1 MLOAD PUSH1 0x1 PUSH1 0x1 PUSH1 0xA0 SHL SUB SWAP1 SWAP4 AND DUP4 MSTORE PUSH1 0x20 DUP4 ADD SWAP2 SWAP1 SWAP2 MSTORE ADD JUMPDEST PUSH1 0x40 MLOAD DUP1 SWAP2 SUB SWAP1 RETURN JUMPDEST PUSH2 0xE7 PUSH2 0x12E CALLDATASIZE PUSH1 0x4 PUSH2 0xFE2 JUMP JUMPDEST PUSH2 0x68B JUMP JUMPDEST PUSH2 0x17F PUSH2 0x141 CALLDATASIZE PUSH1 0x4 PUSH2 0xFFB JUMP JUMPDEST PUSH1 0x2 PUSH1 0x20 DUP2 DUP2 MSTORE PUSH1 0x0 SWAP4 DUP5 MSTORE PUSH1 0x40 DUP1 DUP6 KECCAK256 SWAP1 SWAP2 MSTORE SWAP2 DUP4 MSTORE SWAP2 KECCAK256 DUP1 SLOAD PUSH1 0x1 DUP3 ADD SLOAD SWAP2 SWAP1 SWAP3 ADD SLOAD PUSH1 0xFF DUP1 DUP3 AND SWAP2 PUSH2 0x100 DUP2 DIV DUP3 AND SWAP2 PUSH3 0x10000 SWAP1 SWAP2 DIV AND DUP6 JUMP JUMPDEST PUSH1 0x40 DUP1 MLOAD SWAP6 DUP7 MSTORE PUSH1 0x20 DUP7 ADD SWAP5 SWAP1 SWAP5 MSTORE SWAP2 ISZERO ISZERO SWAP3 DUP5 ADD SWAP3 SWAP1 SWAP3 MSTORE SWAP1 ISZERO ISZERO PUSH1 0x60 DUP4 ADD MSTORE ISZERO ISZERO PUSH1 0x80 DUP3 ADD MSTORE PUSH1 0xA0 ADD PUSH2 0x117 JUMP JUMPDEST PUSH2 0xE7 PUSH2 0x1BD CALLDATASIZE PUSH1 0x4 PUSH2 0xFE2 JUMP JUMPDEST PUSH2 0x7D3 JUMP JUMPDEST PUSH2 0x21B PUSH2 0x1D0 CALLDATASIZE PUSH1 0x4 PUSH2 0xFE2 JUMP JUMPDEST PUSH1 0x1 PUSH1 0x20 DUP2 SWAP1 MSTORE PUSH1 0x0 SWAP2 DUP3 MSTORE PUSH1 0x40 SWAP1 SWAP2 KECCAK256 DUP1 SLOAD SWAP2 DUP2 ADD SLOAD PUSH1 0x2 DUP3 ADD SLOAD PUSH1 0x3 DUP4 ADD SLOAD PUSH1 0x5 DUP5 ADD SLOAD PUSH1 0x6 DUP6 ADD SLOAD PUSH1 0x7 SWAP1 SWAP6 ADD SLOAD SWAP4 SWAP5 SWAP3 SWAP4 PUSH1 0xFF SWAP3 DUP4 AND SWAP4 PUSH1 0x1 PUSH1 0x1 PUSH1 0xA0 SHL SUB SWAP1 SWAP3 AND SWAP3 AND DUP8 JUMP JUMPDEST PUSH1 0x40 MLOAD PUSH2 0x117 SWAP8 SWAP7 SWAP6 SWAP5 SWAP4 SWAP3 SWAP2 SWAP1 PUSH2 0x105F JUMP JUMPDEST PUSH1 0x0 SLOAD PUSH2 0x241 SWAP1 PUSH1 0x1 PUSH1 0x1 PUSH1 0xA0 SHL SUB AND DUP2 JUMP JUMPDEST PUSH1 0x40 MLOAD PUSH1 0x1 PUSH1 0x1 PUSH1 0xA0 SHL SUB SWAP1 SWAP2 AND DUP2 MSTORE PUSH1 0x20 ADD PUSH2 0x117 JUMP JUMPDEST PUSH2 0x27F PUSH2 0x267 CALLDATASIZE PUSH1 0x4 PUSH2 0xFE2 JUMP JUMPDEST PUSH1 0x0 SWAP1 DUP2 MSTORE PUSH1 0x1 PUSH1 0x20 MSTORE PUSH1 0x40 SWAP1 KECCAK256 PUSH1 0x3 ADD SLOAD PUSH1 0xFF AND SWAP1 JUMP JUMPDEST PUSH1 0x40 MLOAD PUSH2 0x117 SWAP2 SWAP1 PUSH2 0x10AA JUMP JUMPDEST PUSH2 0xE7 PUSH2 0x29A CALLDATASIZE PUSH1 0x4 PUSH2 0x10B8 JUMP JUMPDEST PUSH2 0x8DC JUMP JUMPDEST PUSH2 0x241 PUSH2 0x2AD CALLDATASIZE PUSH1 0x4 PUSH2 0x10B8 JUMP JUMPDEST PUSH2 0xB3D JUMP JUMPDEST PUSH2 0x2D5 PUSH2 0x2C0 CALLDATASIZE PUSH1 0x4 PUSH2 0xFE2 JUMP JUMPDEST PUSH1 0x0 SWAP1 DUP2 MSTORE PUSH1 0x1 PUSH1 0x20 MSTORE PUSH1 0x40 SWAP1 KECCAK256 PUSH1 0x4 ADD SLOAD SWAP1 JUMP JUMPDEST PUSH1 0x40 MLOAD SWAP1 DUP2 MSTORE PUSH1 0x20 ADD PUSH2 0x117 JUMP JUMPDEST PUSH2 0xE7 PUSH2 0x2F1 CALLDATASIZE PUSH1 0x4 PUSH2 0x10DA JUMP JUMPDEST PUSH2 0xBDE JUMP JUMPDEST PUSH2 0xE7 PUSH2 0x304 CALLDATASIZE PUSH1 0x4 PUSH2 0x1106 JUMP JUMPDEST PUSH2 0xE61 JUMP JUMPDEST PUSH1 0x0 SLOAD PUSH1 0x1 PUSH1 0x1 PUSH1 0xA0 SHL SUB AND CALLER EQ PUSH2 0x33C JUMPI PUSH1 0x40 MLOAD PUSH3 0x461BCD PUSH1 0xE5 SHL DUP2 MSTORE PUSH1 0x4 ADD PUSH2 0x333 SWAP1 PUSH2 0x1128 JUMP JUMPDEST PUSH1 0x40 MLOAD DUP1 SWAP2 SUB SWAP1 REVERT JUMPDEST PUSH1 0x0 DUP5 DUP2 MSTORE PUSH1 0x1 PUSH1 0x20 MSTORE PUSH1 0x40 SWAP1 KECCAK256 PUSH1 0x7 DUP2 ADD SLOAD PUSH1 0xFF AND PUSH2 0x36E JUMPI PUSH1 0x40 MLOAD PUSH3 0x461BCD PUSH1 0xE5 SHL DUP2 MSTORE PUSH1 0x4 ADD PUSH2 0x333 SWAP1 PUSH2 0x116B JUMP JUMPDEST PUSH1 0x2 PUSH1 0x3 DUP1 DUP4 ADD SLOAD PUSH1 0xFF AND SWAP1 DUP2 GT ISZERO PUSH2 0x389 JUMPI PUSH2 0x389 PUSH2 0x1027 JUMP JUMPDEST EQ PUSH2 0x3E7 JUMPI PUSH1 0x40 MLOAD PUSH3 0x461BCD PUSH1 0xE5 SHL DUP2 MSTORE PUSH1 0x20 PUSH1 0x4 DUP3 ADD MSTORE PUSH1 0x28 PUSH1 0x24 DUP3 ADD MSTORE PUSH32 0x4269644D616E616765723A2062696464696E67206D75737420626520636C6F73 PUSH1 0x44 DUP3 ADD MSTORE PUSH8 0x195908199A5C9CDD PUSH1 0xC2 SHL PUSH1 0x64 DUP3 ADD MSTORE PUSH1 0x84 ADD PUSH2 0x333 JUMP JUMPDEST PUSH1 0x0 DUP6 DUP2 MSTORE PUSH1 0x2 PUSH1 0x20 DUP2 DUP2 MSTORE PUSH1 0x40 DUP1 DUP5 KECCAK256 PUSH1 0x1 PUSH1 0x1 PUSH1 0xA0 SHL SUB DUP10 AND DUP6 MSTORE SWAP1 SWAP2 MSTORE SWAP1 SWAP2 KECCAK256 SWAP1 DUP2 ADD SLOAD PUSH1 0xFF AND PUSH2 0x45D JUMPI PUSH1 0x40 MLOAD PUSH3 0x461BCD PUSH1 0xE5 SHL DUP2 MSTORE PUSH1 0x20 PUSH1 0x4 DUP3 ADD MSTORE PUSH1 0x1F PUSH1 0x24 DUP3 ADD MSTORE PUSH32 0x4269644D616E616765723A206E6F207365616C65642062696420666F756E6400 PUSH1 0x44 DUP3 ADD MSTORE PUSH1 0x64 ADD PUSH2 0x333 JUMP JUMPDEST PUSH1 0x2 DUP2 ADD SLOAD PUSH2 0x100 SWAP1 DIV PUSH1 0xFF AND ISZERO PUSH2 0x4B7 JUMPI PUSH1 0x40 MLOAD PUSH3 0x461BCD PUSH1 0xE5 SHL DUP2 MSTORE PUSH1 0x20 PUSH1 0x4 DUP3 ADD DUP2 SWAP1 MSTORE PUSH1 0x24 DUP3 ADD MSTORE PUSH32 0x4269644D616E616765723A2062696420616C72656164792072657665616C6564 PUSH1 0x44 DUP3 ADD MSTORE PUSH1 0x64 ADD PUSH2 0x333 JUMP JUMPDEST PUSH1 0x40 DUP1 MLOAD PUSH1 0x20 DUP1 DUP3 ADD DUP8 SWAP1 MSTORE DUP2 DUP4 ADD DUP7 SWAP1 MSTORE DUP3 MLOAD DUP1 DUP4 SUB DUP5 ADD DUP2 MSTORE PUSH1 0x60 SWAP1 SWAP3 ADD SWAP1 SWAP3 MSTORE DUP1 MLOAD SWAP2 ADD KECCAK256 DUP2 SLOAD DUP2 EQ PUSH2 0x542 JUMPI PUSH1 0x40 MLOAD PUSH3 0x461BCD PUSH1 0xE5 SHL DUP2 MSTORE PUSH1 0x20 PUSH1 0x4 DUP3 ADD MSTORE PUSH1 0x2A PUSH1 0x24 DUP3 ADD MSTORE PUSH32 0x4269644D616E616765723A20636F6D6D69746D656E7420766572696669636174 PUSH1 0x44 DUP3 ADD MSTORE PUSH10 0x1A5BDB8819985A5B1959 PUSH1 0xB2 SHL PUSH1 0x64 DUP3 ADD MSTORE PUSH1 0x84 ADD PUSH2 0x333 JUMP JUMPDEST PUSH1 0x2 DUP3 ADD DUP1 SLOAD PUSH2 0xFF00 NOT AND PUSH2 0x100 OR SWAP1 SSTORE PUSH1 0x1 DUP3 DUP2 ADD DUP7 SWAP1 SSTORE DUP4 ADD SLOAD DUP6 GT DUP1 ISZERO SWAP1 PUSH2 0x56D JUMPI POP PUSH1 0x0 DUP6 GT JUMPDEST PUSH1 0x2 DUP4 ADD DUP1 SLOAD PUSH3 0xFF0000 NOT AND PUSH3 0x10000 SWAP3 ISZERO ISZERO DUP4 MUL OR SWAP1 DUP2 SWAP1 SSTORE PUSH1 0xFF SWAP2 SWAP1 DIV AND ISZERO PUSH2 0x5D9 JUMPI PUSH1 0x5 DUP4 ADD SLOAD PUSH1 0x1 PUSH1 0x1 PUSH1 0xA0 SHL SUB AND ISZERO DUP1 PUSH2 0x5AF JUMPI POP DUP3 PUSH1 0x6 ADD SLOAD DUP6 LT JUMPDEST ISZERO PUSH2 0x5D9 JUMPI PUSH1 0x5 DUP4 ADD DUP1 SLOAD PUSH1 0x1 PUSH1 0x1 PUSH1 0xA0 SHL SUB NOT AND PUSH1 0x1 PUSH1 0x1 PUSH1 0xA0 SHL SUB DUP9 AND OR SWAP1 SSTORE PUSH1 0x6 DUP4 ADD DUP6 SWAP1 SSTORE JUMPDEST PUSH1 0x2 DUP3 ADD SLOAD PUSH1 0x40 DUP1 MLOAD DUP8 DUP2 MSTORE PUSH3 0x10000 SWAP1 SWAP3 DIV PUSH1 0xFF AND ISZERO ISZERO PUSH1 0x20 DUP4 ADD MSTORE PUSH1 0x1 PUSH1 0x1 PUSH1 0xA0 SHL SUB DUP9 AND SWAP2 DUP10 SWAP2 PUSH32 0x83E16818FEA71FC3D57B93D8E876AD0572956C5A3B45D5C3A16B870097331E66 SWAP2 ADD PUSH1 0x40 MLOAD DUP1 SWAP2 SUB SWAP1 LOG3 POP POP POP POP POP POP POP JUMP JUMPDEST PUSH1 0x0 DUP2 DUP2 MSTORE PUSH1 0x1 PUSH1 0x20 MSTORE PUSH1 0x40 DUP2 KECCAK256 PUSH1 0x7 DUP2 ADD SLOAD DUP3 SWAP2 SWAP1 PUSH1 0xFF AND PUSH2 0x66C JUMPI PUSH1 0x40 MLOAD PUSH3 0x461BCD PUSH1 0xE5 SHL DUP2 MSTORE PUSH1 0x4 ADD PUSH2 0x333 SWAP1 PUSH2 0x116B JUMP JUMPDEST PUSH1 0x5 DUP2 ADD SLOAD PUSH1 0x6 SWAP1 SWAP2 ADD SLOAD PUSH1 0x1 PUSH1 0x1 PUSH1 0xA0 SHL SUB SWAP1 SWAP2 AND SWAP5 SWAP1 SWAP4 POP SWAP2 POP POP JUMP JUMPDEST PUSH1 0x0 SLOAD PUSH1 0x1 PUSH1 0x1 PUSH1 0xA0 SHL SUB AND CALLER EQ PUSH2 0x6B5 JUMPI PUSH1 0x40 MLOAD PUSH3 0x461BCD PUSH1 0xE5 SHL DUP2 MSTORE PUSH1 0x4 ADD PUSH2 0x333 SWAP1 PUSH2 0x1128 JUMP JUMPDEST PUSH1 0x0 DUP2 DUP2 MSTORE PUSH1 0x1 PUSH1 0x20 MSTORE PUSH1 0x40 SWAP1 KECCAK256 PUSH1 0x7 DUP2 ADD SLOAD PUSH1 0xFF AND PUSH2 0x6E7 JUMPI PUSH1 0x40 MLOAD PUSH3 0x461BCD PUSH1 0xE5 SHL DUP2 MSTORE PUSH1 0x4 ADD PUSH2 0x333 SWAP1 PUSH2 0x116B JUMP JUMPDEST PUSH1 0x2 PUSH1 0x3 DUP1 DUP4 ADD SLOAD PUSH1 0xFF AND SWAP1 DUP2 GT ISZERO PUSH2 0x702 JUMPI PUSH2 0x702 PUSH2 0x1027 JUMP JUMPDEST EQ PUSH2 0x75A JUMPI PUSH1 0x40 MLOAD PUSH3 0x461BCD PUSH1 0xE5 SHL DUP2 MSTORE PUSH1 0x20 PUSH1 0x4 DUP3 ADD MSTORE PUSH1 0x22 PUSH1 0x24 DUP3 ADD MSTORE PUSH32 0x4269644D616E616765723A2062696464696E67206D75737420626520636C6F73 PUSH1 0x44 DUP3 ADD MSTORE PUSH2 0x1959 PUSH1 0xF2 SHL PUSH1 0x64 DUP3 ADD MSTORE PUSH1 0x84 ADD PUSH2 0x333 JUMP JUMPDEST PUSH1 0x3 DUP2 DUP2 ADD DUP1 SLOAD PUSH1 0xFF NOT AND SWAP1 SWAP2 OR SWAP1 SSTORE PUSH1 0x5 DUP2 ADD SLOAD PUSH1 0x1 PUSH1 0x1 PUSH1 0xA0 SHL SUB AND ISZERO PUSH2 0x7CF JUMPI PUSH1 0x5 DUP2 ADD SLOAD PUSH1 0x6 DUP3 ADD SLOAD PUSH1 0x40 DUP1 MLOAD PUSH1 0x1 PUSH1 0x1 PUSH1 0xA0 SHL SUB SWAP1 SWAP4 AND DUP4 MSTORE PUSH1 0x20 DUP4 ADD SWAP2 SWAP1 SWAP2 MSTORE DUP4 SWAP2 PUSH32 0xABBE0FF1DE0F165ABCF4DE9A05C6739E1B6B5460F8B54369AC1B32535D49270E SWAP2 ADD JUMPDEST PUSH1 0x40 MLOAD DUP1 SWAP2 SUB SWAP1 LOG2 JUMPDEST POP POP JUMP JUMPDEST PUSH1 0x0 SLOAD PUSH1 0x1 PUSH1 0x1 PUSH1 0xA0 SHL SUB AND CALLER EQ PUSH2 0x7FD JUMPI PUSH1 0x40 MLOAD PUSH3 0x461BCD PUSH1 0xE5 SHL DUP2 MSTORE PUSH1 0x4 ADD PUSH2 0x333 SWAP1 PUSH2 0x1128 JUMP JUMPDEST PUSH1 0x0 DUP2 DUP2 MSTORE PUSH1 0x1 PUSH1 0x20 MSTORE PUSH1 0x40 SWAP1 KECCAK256 PUSH1 0x7 DUP2 ADD SLOAD PUSH1 0xFF AND PUSH2 0x82F JUMPI PUSH1 0x40 MLOAD PUSH3 0x461BCD PUSH1 0xE5 SHL DUP2 MSTORE PUSH1 0x4 ADD PUSH2 0x333 SWAP1 PUSH2 0x116B JUMP JUMPDEST PUSH1 0x1 PUSH1 0x3 DUP1 DUP4 ADD SLOAD PUSH1 0xFF AND SWAP1 DUP2 GT ISZERO PUSH2 0x84A JUMPI PUSH2 0x84A PUSH2 0x1027 JUMP JUMPDEST EQ PUSH2 0x897 JUMPI PUSH1 0x40 MLOAD PUSH3 0x461BCD PUSH1 0xE5 SHL DUP2 MSTORE PUSH1 0x20 PUSH1 0x4 DUP3 ADD MSTORE PUSH1 0x1F PUSH1 0x24 DUP3 ADD MSTORE PUSH32 0x4269644D616E616765723A2062696464696E67206973206E6F74206F70656E00 PUSH1 0x44 DUP3 ADD MSTORE PUSH1 0x64 ADD PUSH2 0x333 JUMP JUMPDEST PUSH1 0x3 DUP2 ADD DUP1 SLOAD PUSH1 0xFF NOT AND PUSH1 0x2 OR SWAP1 SSTORE PUSH1 0x4 DUP2 ADD SLOAD PUSH1 0x40 MLOAD SWAP1 DUP2 MSTORE DUP3 SWAP1 PUSH31 0xECA519AF3F7238A852DDAB6C9BEFC27FB737E98C70A8B1F4A9F56DADAF8BCD SWAP1 PUSH1 0x20 ADD PUSH2 0x7C6 JUMP JUMPDEST PUSH1 0x0 DUP3 DUP2 MSTORE PUSH1 0x1 PUSH1 0x20 MSTORE PUSH1 0x40 SWAP1 KECCAK256 PUSH1 0x7 DUP2 ADD SLOAD PUSH1 0xFF AND PUSH2 0x90E JUMPI PUSH1 0x40 MLOAD PUSH3 0x461BCD PUSH1 0xE5 SHL DUP2 MSTORE PUSH1 0x4 ADD PUSH2 0x333 SWAP1 PUSH2 0x116B JUMP JUMPDEST PUSH1 0x1 PUSH1 0x3 DUP1 DUP4 ADD SLOAD PUSH1 0xFF AND SWAP1 DUP2 GT ISZERO PUSH2 0x929 JUMPI PUSH2 0x929 PUSH2 0x1027 JUMP JUMPDEST EQ PUSH2 0x976 JUMPI PUSH1 0x40 MLOAD PUSH3 0x461BCD PUSH1 0xE5 SHL DUP2 MSTORE PUSH1 0x20 PUSH1 0x4 DUP3 ADD MSTORE PUSH1 0x1F PUSH1 0x24 DUP3 ADD MSTORE PUSH32 0x4269644D616E616765723A2062696464696E67206973206E6F74206F70656E00 PUSH1 0x44 DUP3 ADD MSTORE PUSH1 0x64 ADD PUSH2 0x333 JUMP JUMPDEST DUP1 PUSH1 0x2 ADD SLOAD TIMESTAMP GT ISZERO PUSH2 0x9D6 JUMPI PUSH1 0x40 MLOAD PUSH3 0x461BCD PUSH1 0xE5 SHL DUP2 MSTORE PUSH1 0x20 PUSH1 0x4 DUP3 ADD MSTORE PUSH1 0x23 PUSH1 0x24 DUP3 ADD MSTORE PUSH32 0x4269644D616E616765723A2062696464696E6720646561646C696E6520706173 PUSH1 0x44 DUP3 ADD MSTORE PUSH3 0x1CD959 PUSH1 0xEA SHL PUSH1 0x64 DUP3 ADD MSTORE PUSH1 0x84 ADD PUSH2 0x333 JUMP JUMPDEST PUSH1 0x0 DUP4 DUP2 MSTORE PUSH1 0x2 PUSH1 0x20 DUP2 DUP2 MSTORE PUSH1 0x40 DUP1 DUP5 KECCAK256 CALLER DUP6 MSTORE SWAP1 SWAP2 MSTORE SWAP1 SWAP2 KECCAK256 ADD SLOAD PUSH1 0xFF AND ISZERO PUSH2 0xA4E JUMPI PUSH1 0x40 MLOAD PUSH3 0x461BCD PUSH1 0xE5 SHL DUP2 MSTORE PUSH1 0x20 PUSH1 0x4 DUP3 ADD MSTORE PUSH1 0x23 PUSH1 0x24 DUP3 ADD MSTORE PUSH32 0x4269644D616E616765723A20616C7265616479207375626D6974746564206120 PUSH1 0x44 DUP3 ADD MSTORE PUSH3 0x189A59 PUSH1 0xEA SHL PUSH1 0x64 DUP3 ADD MSTORE PUSH1 0x84 ADD PUSH2 0x333 JUMP JUMPDEST PUSH1 0x40 DUP1 MLOAD PUSH1 0xA0 DUP2 ADD DUP3 MSTORE DUP4 DUP2 MSTORE PUSH1 0x0 PUSH1 0x20 DUP1 DUP4 ADD DUP3 DUP2 MSTORE PUSH1 0x1 DUP5 DUP7 ADD DUP2 DUP2 MSTORE PUSH1 0x60 DUP7 ADD DUP6 DUP2 MSTORE PUSH1 0x80 DUP8 ADD DUP7 DUP2 MSTORE DUP12 DUP8 MSTORE PUSH1 0x2 DUP1 DUP8 MSTORE DUP10 DUP9 KECCAK256 CALLER DUP1 DUP11 MSTORE SWAP1 DUP9 MSTORE DUP11 DUP10 KECCAK256 SWAP10 MLOAD DUP11 SSTORE SWAP6 MLOAD DUP10 DUP7 ADD SSTORE SWAP3 MLOAD SWAP8 SWAP1 SWAP3 ADD DUP1 SLOAD SWAP2 MLOAD SWAP3 MLOAD ISZERO ISZERO PUSH3 0x10000 MUL PUSH3 0xFF0000 NOT SWAP4 ISZERO ISZERO PUSH2 0x100 MUL PUSH2 0xFF00 NOT SWAP10 ISZERO ISZERO SWAP10 SWAP1 SWAP10 AND PUSH2 0xFFFF NOT SWAP1 SWAP4 AND SWAP3 SWAP1 SWAP3 OR SWAP8 SWAP1 SWAP8 OR SWAP2 SWAP1 SWAP2 AND OR SWAP1 SWAP5 SSTORE PUSH1 0x4 DUP7 ADD DUP1 SLOAD SWAP5 DUP6 ADD DUP2 SSTORE DUP4 MSTORE SWAP2 KECCAK256 SWAP1 SWAP2 ADD DUP1 SLOAD PUSH1 0x1 PUSH1 0x1 PUSH1 0xA0 SHL SUB NOT AND DUP3 OR SWAP1 SSTORE SWAP1 MLOAD DUP5 SWAP1 PUSH32 0x9BD5EB090716E4D26C7AF9D2676756CC00DF3516E00B084D3E35D815AB4F755E SWAP1 PUSH2 0xB30 SWAP1 DUP7 DUP2 MSTORE PUSH1 0x20 ADD SWAP1 JUMP JUMPDEST PUSH1 0x40 MLOAD DUP1 SWAP2 SUB SWAP1 LOG3 POP POP POP JUMP JUMPDEST PUSH1 0x0 DUP3 DUP2 MSTORE PUSH1 0x1 PUSH1 0x20 MSTORE PUSH1 0x40 DUP2 KECCAK256 PUSH1 0x4 ADD SLOAD DUP3 LT PUSH2 0xB9D JUMPI PUSH1 0x40 MLOAD PUSH3 0x461BCD PUSH1 0xE5 SHL DUP2 MSTORE PUSH1 0x20 PUSH1 0x4 DUP3 ADD MSTORE PUSH1 0x1F PUSH1 0x24 DUP3 ADD MSTORE PUSH32 0x4269644D616E616765723A20696E646578206F7574206F6620626F756E647300 PUSH1 0x44 DUP3 ADD MSTORE PUSH1 0x64 ADD PUSH2 0x333 JUMP JUMPDEST PUSH1 0x0 DUP4 DUP2 MSTORE PUSH1 0x1 PUSH1 0x20 MSTORE PUSH1 0x40 SWAP1 KECCAK256 PUSH1 0x4 ADD DUP1 SLOAD DUP4 SWAP1 DUP2 LT PUSH2 0xBC0 JUMPI PUSH2 0xBC0 PUSH2 0x11AD JUMP JUMPDEST PUSH1 0x0 SWAP2 DUP3 MSTORE PUSH1 0x20 SWAP1 SWAP2 KECCAK256 ADD SLOAD PUSH1 0x1 PUSH1 0x1 PUSH1 0xA0 SHL SUB AND SWAP1 POP JUMPDEST SWAP3 SWAP2 POP POP JUMP JUMPDEST PUSH1 0x0 SLOAD PUSH1 0x1 PUSH1 0x1 PUSH1 0xA0 SHL SUB AND CALLER EQ PUSH2 0xC08 JUMPI PUSH1 0x40 MLOAD PUSH3 0x461BCD PUSH1 0xE5 SHL DUP2 MSTORE PUSH1 0x4 ADD PUSH2 0x333 SWAP1 PUSH2 0x1128 JUMP JUMPDEST PUSH1 0x0 DUP4 DUP2 MSTORE PUSH1 0x1 PUSH1 0x20 MSTORE PUSH1 0x40 SWAP1 KECCAK256 PUSH1 0x7 ADD SLOAD PUSH1 0xFF AND ISZERO PUSH2 0xC75 JUMPI PUSH1 0x40 MLOAD PUSH3 0x461BCD PUSH1 0xE5 SHL DUP2 MSTORE PUSH1 0x20 PUSH1 0x4 DUP3 ADD MSTORE PUSH1 0x22 PUSH1 0x24 DUP3 ADD MSTORE PUSH32 0x4269644D616E616765723A2073657373696F6E20616C72656164792065786973 PUSH1 0x44 DUP3 ADD MSTORE PUSH2 0x7473 PUSH1 0xF0 SHL PUSH1 0x64 DUP3 ADD MSTORE PUSH1 0x84 ADD PUSH2 0x333 JUMP JUMPDEST PUSH1 0x0 DUP3 GT PUSH2 0xCC5 JUMPI PUSH1 0x40 MLOAD PUSH3 0x461BCD PUSH1 0xE5 SHL DUP2 MSTORE PUSH1 0x20 PUSH1 0x4 DUP3 ADD MSTORE PUSH1 0x1B PUSH1 0x24 DUP3 ADD MSTORE PUSH32 0x4269644D616E616765723A20414243206D757374206265203E20300000000000 PUSH1 0x44 DUP3 ADD MSTORE PUSH1 0x64 ADD PUSH2 0x333 JUMP JUMPDEST TIMESTAMP DUP2 GT PUSH2 0xD27 JUMPI PUSH1 0x40 MLOAD PUSH3 0x461BCD PUSH1 0xE5 SHL DUP2 MSTORE PUSH1 0x20 PUSH1 0x4 DUP3 ADD MSTORE PUSH1 0x2A PUSH1 0x24 DUP3 ADD MSTORE PUSH32 0x4269644D616E616765723A20646561646C696E65206D75737420626520696E20 PUSH1 0x44 DUP3 ADD MSTORE PUSH10 0x74686520667574757265 PUSH1 0xB0 SHL PUSH1 0x64 DUP3 ADD MSTORE PUSH1 0x84 ADD PUSH2 0x333 JUMP JUMPDEST PUSH1 0x40 DUP1 MLOAD PUSH2 0x100 DUP2 ADD DUP3 MSTORE DUP5 DUP2 MSTORE PUSH1 0x20 DUP1 DUP3 ADD DUP6 DUP2 MSTORE DUP3 DUP5 ADD DUP6 DUP2 MSTORE PUSH1 0x1 PUSH1 0x60 DUP6 ADD DUP2 DUP2 MSTORE DUP7 MLOAD PUSH1 0x0 DUP1 DUP3 MSTORE DUP2 DUP8 ADD DUP10 MSTORE PUSH1 0x80 DUP9 ADD SWAP2 SWAP1 SWAP2 MSTORE PUSH1 0xA0 DUP8 ADD DUP2 SWAP1 MSTORE PUSH1 0xC0 DUP8 ADD DUP2 SWAP1 MSTORE PUSH1 0xE0 DUP8 ADD DUP4 SWAP1 MSTORE DUP11 DUP2 MSTORE SWAP5 DUP3 SWAP1 MSTORE SWAP6 SWAP1 SWAP4 KECCAK256 DUP5 MLOAD DUP2 SSTORE SWAP2 MLOAD DUP3 DUP5 ADD SSTORE MLOAD PUSH1 0x2 DUP3 ADD SSTORE SWAP3 MLOAD PUSH1 0x3 DUP1 DUP6 ADD DUP1 SLOAD SWAP5 SWAP6 SWAP5 SWAP3 SWAP4 SWAP1 SWAP3 PUSH1 0xFF NOT AND SWAP2 DUP5 SWAP1 DUP2 GT ISZERO PUSH2 0xDB6 JUMPI PUSH2 0xDB6 PUSH2 0x1027 JUMP JUMPDEST MUL OR SWAP1 SSTORE POP PUSH1 0x80 DUP3 ADD MLOAD DUP1 MLOAD PUSH2 0xDD6 SWAP2 PUSH1 0x4 DUP5 ADD SWAP2 PUSH1 0x20 SWAP1 SWAP2 ADD SWAP1 PUSH2 0xF11 JUMP JUMPDEST POP PUSH1 0xA0 DUP3 ADD MLOAD PUSH1 0x5 DUP3 ADD DUP1 SLOAD PUSH1 0x1 PUSH1 0x1 PUSH1 0xA0 SHL SUB NOT AND PUSH1 0x1 PUSH1 0x1 PUSH1 0xA0 SHL SUB SWAP1 SWAP3 AND SWAP2 SWAP1 SWAP2 OR SWAP1 SSTORE PUSH1 0xC0 DUP3 ADD MLOAD PUSH1 0x6 DUP3 ADD SSTORE PUSH1 0xE0 SWAP1 SWAP2 ADD MLOAD PUSH1 0x7 SWAP1 SWAP2 ADD DUP1 SLOAD PUSH1 0xFF NOT AND SWAP2 ISZERO ISZERO SWAP2 SWAP1 SWAP2 OR SWAP1 SSTORE PUSH1 0x40 DUP1 MLOAD DUP4 DUP2 MSTORE PUSH1 0x20 DUP2 ADD DUP4 SWAP1 MSTORE DUP5 SWAP2 PUSH32 0x9159B8BCC1A884CC73FA6A5DB07B4473F4169FD7B0010E792A6A63C30C195DC SWAP2 ADD PUSH1 0x40 MLOAD DUP1 SWAP2 SUB SWAP1 LOG2 POP POP POP JUMP JUMPDEST PUSH1 0x0 SLOAD PUSH1 0x1 PUSH1 0x1 PUSH1 0xA0 SHL SUB AND CALLER EQ PUSH2 0xE8B JUMPI PUSH1 0x40 MLOAD PUSH3 0x461BCD PUSH1 0xE5 SHL DUP2 MSTORE PUSH1 0x4 ADD PUSH2 0x333 SWAP1 PUSH2 0x1128 JUMP JUMPDEST PUSH1 0x1 PUSH1 0x1 PUSH1 0xA0 SHL SUB DUP2 AND PUSH2 0xEEF JUMPI PUSH1 0x40 MLOAD PUSH3 0x461BCD PUSH1 0xE5 SHL DUP2 MSTORE PUSH1 0x20 PUSH1 0x4 DUP3 ADD MSTORE PUSH1 0x25 PUSH1 0x24 DUP3 ADD MSTORE PUSH32 0x4269644D616E616765723A206E6577206F776E6572206973207A65726F206164 PUSH1 0x44 DUP3 ADD MSTORE PUSH5 0x6472657373 PUSH1 0xD8 SHL PUSH1 0x64 DUP3 ADD MSTORE PUSH1 0x84 ADD PUSH2 0x333 JUMP JUMPDEST PUSH1 0x0 DUP1 SLOAD PUSH1 0x1 PUSH1 0x1 PUSH1 0xA0 SHL SUB NOT AND PUSH1 0x1 PUSH1 0x1 PUSH1 0xA0 SHL SUB SWAP3 SWAP1 SWAP3 AND SWAP2 SWAP1 SWAP2 OR SWAP1 SSTORE JUMP JUMPDEST DUP3 DUP1 SLOAD DUP3 DUP3 SSTORE SWAP1 PUSH1 0x0 MSTORE PUSH1 0x20 PUSH1 0x0 KECCAK256 SWAP1 DUP2 ADD SWAP3 DUP3 ISZERO PUSH2 0xF66 JUMPI SWAP2 PUSH1 0x20 MUL DUP3 ADD JUMPDEST DUP3 DUP2 GT ISZERO PUSH2 0xF66 JUMPI DUP3 MLOAD DUP3 SLOAD PUSH1 0x1 PUSH1 0x1 PUSH1 0xA0 SHL SUB NOT AND PUSH1 0x1 PUSH1 0x1 PUSH1 0xA0 SHL SUB SWAP1 SWAP2 AND OR DUP3 SSTORE PUSH1 0x20 SWAP1 SWAP3 ADD SWAP2 PUSH1 0x1 SWAP1 SWAP2 ADD SWAP1 PUSH2 0xF31 JUMP JUMPDEST POP PUSH2 0xF72 SWAP3 SWAP2 POP PUSH2 0xF76 JUMP JUMPDEST POP SWAP1 JUMP JUMPDEST JUMPDEST DUP1 DUP3 GT ISZERO PUSH2 0xF72 JUMPI PUSH1 0x0 DUP2 SSTORE PUSH1 0x1 ADD PUSH2 0xF77 JUMP JUMPDEST DUP1 CALLDATALOAD PUSH1 0x1 PUSH1 0x1 PUSH1 0xA0 SHL SUB DUP2 AND DUP2 EQ PUSH2 0xFA2 JUMPI PUSH1 0x0 DUP1 REVERT JUMPDEST SWAP2 SWAP1 POP JUMP JUMPDEST PUSH1 0x0 DUP1 PUSH1 0x0 DUP1 PUSH1 0x80 DUP6 DUP8 SUB SLT ISZERO PUSH2 0xFBD JUMPI PUSH1 0x0 DUP1 REVERT JUMPDEST DUP5 CALLDATALOAD SWAP4 POP PUSH2 0xFCD PUSH1 0x20 DUP7 ADD PUSH2 0xF8B JUMP JUMPDEST SWAP4 SWAP7 SWAP4 SWAP6 POP POP POP POP PUSH1 0x40 DUP3 ADD CALLDATALOAD SWAP2 PUSH1 0x60 ADD CALLDATALOAD SWAP1 JUMP JUMPDEST PUSH1 0x0 PUSH1 0x20 DUP3 DUP5 SUB SLT ISZERO PUSH2 0xFF4 JUMPI PUSH1 0x0 DUP1 REVERT JUMPDEST POP CALLDATALOAD SWAP2 SWAP1 POP JUMP JUMPDEST PUSH1 0x0 DUP1 PUSH1 0x40 DUP4 DUP6 SUB SLT ISZERO PUSH2 0x100E JUMPI PUSH1 0x0 DUP1 REVERT JUMPDEST DUP3 CALLDATALOAD SWAP2 POP PUSH2 0x101E PUSH1 0x20 DUP5 ADD PUSH2 0xF8B JUMP JUMPDEST SWAP1 POP SWAP3 POP SWAP3 SWAP1 POP JUMP JUMPDEST PUSH4 0x4E487B71 PUSH1 0xE0 SHL PUSH1 0x0 MSTORE PUSH1 0x21 PUSH1 0x4 MSTORE PUSH1 0x24 PUSH1 0x0 REVERT JUMPDEST PUSH1 0x4 DUP2 LT PUSH2 0x105B JUMPI PUSH4 0x4E487B71 PUSH1 0xE0 SHL PUSH1 0x0 MSTORE PUSH1 0x21 PUSH1 0x4 MSTORE PUSH1 0x24 PUSH1 0x0 REVERT JUMPDEST SWAP1 MSTORE JUMP JUMPDEST DUP8 DUP2 MSTORE PUSH1 0x20 DUP2 ADD DUP8 SWAP1 MSTORE PUSH1 0x40 DUP2 ADD DUP7 SWAP1 MSTORE PUSH1 0xE0 DUP2 ADD PUSH2 0x1081 PUSH1 0x60 DUP4 ADD DUP8 PUSH2 0x103D JUMP JUMPDEST PUSH1 0x1 PUSH1 0x1 PUSH1 0xA0 SHL SUB SWAP5 SWAP1 SWAP5 AND PUSH1 0x80 DUP3 ADD MSTORE PUSH1 0xA0 DUP2 ADD SWAP3 SWAP1 SWAP3 MSTORE ISZERO ISZERO PUSH1 0xC0 SWAP1 SWAP2 ADD MSTORE SWAP5 SWAP4 POP POP POP POP JUMP JUMPDEST PUSH1 0x20 DUP2 ADD PUSH2 0xBD8 DUP3 DUP5 PUSH2 0x103D JUMP JUMPDEST PUSH1 0x0 DUP1 PUSH1 0x40 DUP4 DUP6 SUB SLT ISZERO PUSH2 0x10CB JUMPI PUSH1 0x0 DUP1 REVERT JUMPDEST POP POP DUP1 CALLDATALOAD SWAP3 PUSH1 0x20 SWAP1 SWAP2 ADD CALLDATALOAD SWAP2 POP JUMP JUMPDEST PUSH1 0x0 DUP1 PUSH1 0x0 PUSH1 0x60 DUP5 DUP7 SUB SLT ISZERO PUSH2 0x10EF JUMPI PUSH1 0x0 DUP1 REVERT JUMPDEST POP POP DUP2 CALLDATALOAD SWAP4 PUSH1 0x20 DUP4 ADD CALLDATALOAD SWAP4 POP PUSH1 0x40 SWAP1 SWAP3 ADD CALLDATALOAD SWAP2 SWAP1 POP JUMP JUMPDEST PUSH1 0x0 PUSH1 0x20 DUP3 DUP5 SUB SLT ISZERO PUSH2 0x1118 JUMPI PUSH1 0x0 DUP1 REVERT JUMPDEST PUSH2 0x1121 DUP3 PUSH2 0xF8B JUMP JUMPDEST SWAP4 SWAP3 POP POP POP JUMP JUMPDEST PUSH1 0x20 DUP1 DUP3 MSTORE PUSH1 0x23 SWAP1 DUP3 ADD MSTORE PUSH32 0x4269644D616E616765723A2063616C6C6572206973206E6F7420746865206F77 PUSH1 0x40 DUP3 ADD MSTORE PUSH3 0x3732B9 PUSH1 0xE9 SHL PUSH1 0x60 DUP3 ADD MSTORE PUSH1 0x80 ADD SWAP1 JUMP JUMPDEST PUSH1 0x20 DUP1 DUP3 MSTORE PUSH1 0x22 SWAP1 DUP3 ADD MSTORE PUSH32 0x4269644D616E616765723A2073657373696F6E20646F6573206E6F7420657869 PUSH1 0x40 DUP3 ADD MSTORE PUSH2 0x1CDD PUSH1 0xF2 SHL PUSH1 0x60 DUP3 ADD MSTORE PUSH1 0x80 ADD SWAP1 JUMP JUMPDEST PUSH4 0x4E487B71 PUSH1 0xE0 SHL PUSH1 0x0 MSTORE PUSH1 0x32 PUSH1 0x4 MSTORE PUSH1 0x24 PUSH1 0x0 REVERT INVALID LOG2 PUSH5 0x6970667358 0x22 SLT KECCAK256 0xF9 0xDB STOP PUSH17 0x78DF9FBF697852AD2C04EB1B80ED43201F PUSH2 0xEE89 0x2D SGT DUP16 0xBC MSIZE PUSH23 0xE95064736F6C6343000818003300000000000000000000 "},"methodIdentifiers":{"bids(bytes32,address)":"66e929bf","closeBidding(bytes32)":"6a279bbb","finalizeReveals(bytes32)":"3599b57e","getBidderAtIndex(bytes32,uint256)":"d356738b","getBidderCount(bytes32)":"e38ba6bf","getLowestCompliantBid(bytes32)":"351bacd4","getSessionStatus(bytes32)":"abbb6bf6","openBidding(bytes32,uint256,uint256)":"e526a331","owner()":"8da5cb5b","revealBid(bytes32,address,uint256,bytes32)":"190ba29c","sessions(bytes32)":"7dbd2832","submitSealedBid(bytes32,bytes32)":"bf9349dc","transferOwnership(address)":"f2fde38b"}}}}}