{"contracts/ProcurementRegistry.sol":{"ProcurementRegistry":{"abi":[{"inputs":[],"stateMutability":"nonpayable","type":"constructor"},{"anonymous":false,"inputs":[{"indexed":true,"internalType":"bytes32","name":"procurementId","type":"bytes32"},{"indexed":false,"internalType":"bytes32","name":"eventHash","type":"bytes32"},{"indexed":false,"internalType":"enum ProcurementRegistry.EventType","name":"eventType","type":"uint8"},{"indexed":false,"internalType":"uint256","name":"timestamp","type":"uint256"}],"name":"EventAnchored","type":"event"},{"anonymous":false,"inputs":[{"indexed":true,"internalType":"bytes32","name":"id","type":"bytes32"},{"indexed":false,"internalType":"string","name":"title","type":"string"},{"indexed":false,"internalType":"uint256","name":"abc","type":"uint256"},{"indexed":false,"internalType":"uint256","name":"timestamp","type":"uint256"}],"name":"ProcurementRegistered","type":"event"},{"inputs":[{"internalType":"bytes32","name":"_procurementId","type":"bytes32"},{"internalType":"bytes32","name":"_eventHash","type":"bytes32"},{"internalType":"enum ProcurementRegistry.EventType","name":"_eventType","type":"uint8"}],"name":"anchorEvent","outputs":[],"stateMutability":"nonpayable","type":"function"},{"inputs":[{"internalType":"bytes32","name":"","type":"bytes32"},{"internalType":"bytes32","name":"","type":"bytes32"}],"name":"anchoredEvents","outputs":[{"internalType":"bytes32","name":"eventHash","type":"bytes32"},{"internalType":"enum ProcurementRegistry.EventType","name":"eventType","type":"uint8"},{"internalType":"uint256","name":"anchoredAt","type":"uint256"},{"internalType":"bool","name":"exists","type":"bool"}],"stateMutability":"view","type":"function"},{"inputs":[],"name":"eventCount","outputs":[{"internalType":"uint256","name":"","type":"uint256"}],"stateMutability":"view","type":"function"},{"inputs":[{"internalType":"bytes32","name":"","type":"bytes32"},{"internalType":"uint256","name":"","type":"uint256"}],"name":"eventHistory","outputs":[{"internalType":"bytes32","name":"","type":"bytes32"}],"stateMutability":"view","type":"function"},{"inputs":[{"internalType":"bytes32","name":"_procurementId","type":"bytes32"}],"name":"getEventCount","outputs":[{"internalType":"uint256","name":"","type":"uint256"}],"stateMutability":"view","type":"function"},{"inputs":[{"internalType":"bytes32","name":"_procurementId","type":"bytes32"},{"internalType":"bytes32","name":"_eventHash","type":"bytes32"}],"name":"getEventDetail","outputs":[{"internalType":"enum ProcurementRegistry.EventType","name":"eventType","type":"uint8"},{"internalType":"uint256","name":"anchoredAt","type":"uint256"},{"internalType":"bool","name":"exists","type":"bool"}],"stateMutability":"view","type":"function"},{"inputs":[{"internalType":"bytes32","name":"_procurementId","type":"bytes32"},{"internalType":"uint256","name":"_index","type":"uint256"}],"name":"getEventHashAtIndex","outputs":[{"internalType":"bytes32","name":"","type":"bytes32"}],"stateMutability":"view","type":"function"},{"inputs":[],"name":"owner","outputs":[{"internalType":"address","name":"","type":"address"}],"stateMutability":"view","type":"function"},{"inputs":[],"name":"procurementCount","outputs":[{"internalType":"uint256","name":"","type":"uint256"}],"stateMutability":"view","type":"function"},{"inputs":[{"internalType":"bytes32","name":"","type":"bytes32"}],"name":"procurements","outputs":[{"internalType":"bytes32","name":"id","type":"bytes32"},{"internalType":"string","name":"title","type":"string"},{"internalType":"uint256","name":"abc","type":"uint256"},{"internalType":"uint256","name":"registeredAt","type":"uint256"},{"internalType":"bool","name":"exists","type":"bool"}],"stateMutability":"view","type":"function"},{"inputs":[{"internalType":"bytes32","name":"_id","type":"bytes32"},{"internalType":"string","name":"_title","type":"string"},{"internalType":"uint256","name":"_abc","type":"uint256"}],"name":"registerProcurement","outputs":[],"stateMutability":"nonpayable","type":"function"},{"inputs":[{"internalType":"address","name":"_newOwner","type":"address"}],"name":"transferOwnership","outputs":[],"stateMutability":"nonpayable","type":"function"},{"inputs":[{"internalType":"bytes32","name":"_procurementId","type":"bytes32"},{"internalType":"bytes32","name":"_eventHash","type":"bytes32"}],"name":"verifyEvent","outputs":[{"internalType":"bool","name":"","type":"bool"}],"stateMutability":"view","type":"function"}],"evm":{"bytecode":{"linkReferences":{},"object":"608060405234801561001057600080fd5b50600080546001600160a01b03191633179055610dee806100326000396000f3fe608060405234801561001057600080fd5b50600436106100cf5760003560e01c80638da5cb5b1161008c578063f2fde38b11610066578063f2fde38b1461021b578063f33bfc621461022e578063fc6d0f0914610252578063fef6be9e1461025b57600080fd5b80638da5cb5b1461018c578063b09227ce146101b7578063c48a21b11461020857600080fd5b80630c2e4968146100d45780632ed8dcf71461011a578063389f591d1461014857806357a805391461015d57806371be2e4a1461017057806386474ecb14610179575b600080fd5b6101056100e236600461094d565b600091825260026020908152604080842092845291905290206003015460ff1690565b60405190151581526020015b60405180910390f35b61013a61012836600461096f565b60009081526003602052604090205490565b604051908152602001610111565b61015b610156366004610988565b6102b0565b005b61013a61016b36600461094d565b6104d7565b61013a60055481565b61015b610187366004610a0a565b610578565b60005461019f906001600160a01b031681565b6040516001600160a01b039091168152602001610111565b6101f96101c536600461094d565b6000918252600260208181526040808520938552929052912060018101549181015460039091015460ff9283169391921690565b60405161011193929190610a7f565b61013a61021636600461094d565b6107a8565b61015b610229366004610aa3565b6107d9565b61024161023c36600461096f565b610892565b604051610111959493929190610ad3565b61013a60045481565b6102a061026936600461094d565b600260208181526000938452604080852090915291835291208054600182015492820154600390920154909260ff90811692911684565b6040516101119493929190610b41565b6000546001600160a01b031633146102e35760405162461bcd60e51b81526004016102da90610b6c565b60405180910390fd5b60008481526001602052604090206004015460ff16156103615760405162461bcd60e51b815260206004820152603360248201527f50726f637572656d656e7452656769737472793a2070726f637572656d656e7460448201527208185b1c9958591e481c9959da5cdd195c9959606a1b60648201526084016102da565b600081116103cc5760405162461bcd60e51b815260206004820152603260248201527f50726f637572656d656e7452656769737472793a20414243206d7573742062656044820152712067726561746572207468616e207a65726f60701b60648201526084016102da565b6040518060a0016040528085815260200184848080601f016020809104026020016040519081016040528093929190818152602001838380828437600092018290525093855250505060208083018590524260408085019190915260016060909401849052888352838252909120835181559083015190918201906104519082610c59565b5060408201516002820155606082015160038201556080909101516004918201805460ff1916911515919091179055805490600061048e83610d19565b9190505550837f922e22d50443e32e1db2e1950ad7fd475c676d42eaf49aa7b3493289420f8d98848484426040516104c99493929190610d40565b60405180910390a250505050565b60008281526003602052604081205482106105455760405162461bcd60e51b815260206004820152602860248201527f50726f637572656d656e7452656769737472793a20696e646578206f7574206f6044820152676620626f756e647360c01b60648201526084016102da565b600083815260036020526040902080548390811061056557610565610d80565b9060005260206000200154905092915050565b6000546001600160a01b031633146105a25760405162461bcd60e51b81526004016102da90610b6c565b600083815260016020526040902060040154839060ff1661061d5760405162461bcd60e51b815260206004820152602f60248201527f50726f637572656d656e7452656769737472793a2070726f637572656d656e7460448201526e08191bd95cc81b9bdd08195e1a5cdd608a1b60648201526084016102da565b600084815260026020908152604080832086845290915290206003015460ff161561069e5760405162461bcd60e51b815260206004820152602b60248201527f50726f637572656d656e7452656769737472793a206576656e7420616c72656160448201526a191e48185b98da1bdc995960aa1b60648201526084016102da565b60405180608001604052808481526020018360068111156106c1576106c1610a47565b815242602080830191909152600160409283018190526000888152600283528381208882528352929092208351815590830151818301805492939192909160ff199091169083600681111561071857610718610a47565b021790555060408281015160028301556060909201516003918201805460ff191691151591909117905560008681526020918252918220805460018101825590835290822001849055600580549161076f83610d19565b9190505550837f14abde2309714526b2b4605818411b283667d333ce1dce3daa7584ac42f127378484426040516104c993929190610d96565b600360205281600052604060002081815481106107c457600080fd5b90600052602060002001600091509150505481565b6000546001600160a01b031633146108035760405162461bcd60e51b81526004016102da90610b6c565b6001600160a01b0381166108705760405162461bcd60e51b815260206004820152602e60248201527f50726f637572656d656e7452656769737472793a206e6577206f776e6572206960448201526d73207a65726f206164647265737360901b60648201526084016102da565b600080546001600160a01b0319166001600160a01b0392909216919091179055565b6001602081905260009182526040909120805491810180546108b390610bce565b80601f01602080910402602001604051908101604052809291908181526020018280546108df90610bce565b801561092c5780601f106109015761010080835404028352916020019161092c565b820191906000526020600020905b81548152906001019060200180831161090f57829003601f168201915b50505050600283015460038401546004909401549293909290915060ff1685565b6000806040838503121561096057600080fd5b50508035926020909101359150565b60006020828403121561098157600080fd5b5035919050565b6000806000806060858703121561099e57600080fd5b84359350602085013567ffffffffffffffff808211156109bd57600080fd5b818701915087601f8301126109d157600080fd5b8135818111156109e057600080fd5b8860208285010111156109f257600080fd5b95986020929092019750949560400135945092505050565b600080600060608486031215610a1f57600080fd5b8335925060208401359150604084013560078110610a3c57600080fd5b809150509250925092565b634e487b7160e01b600052602160045260246000fd5b60078110610a7b57634e487b7160e01b600052602160045260246000fd5b9052565b60608101610a8d8286610a5d565b8360208301528215156040830152949350505050565b600060208284031215610ab557600080fd5b81356001600160a01b0381168114610acc57600080fd5b9392505050565b8581526000602060a0602084015286518060a085015260005b81811015610b085788810183015185820160c001528201610aec565b50600060c0828601015260c0601f19601f8301168501019250505084604083015283606083015282151560808301529695505050505050565b84815260808101610b556020830186610a5d565b836040830152821515606083015295945050505050565b6020808252602c908201527f50726f637572656d656e7452656769737472793a2063616c6c6572206973206e60408201526b37ba103a34329037bbb732b960a11b606082015260800190565b634e487b7160e01b600052604160045260246000fd5b600181811c90821680610be257607f821691505b602082108103610c0257634e487b7160e01b600052602260045260246000fd5b50919050565b601f821115610c54576000816000526020600020601f850160051c81016020861015610c315750805b601f850160051c820191505b81811015610c5057828155600101610c3d565b5050505b505050565b815167ffffffffffffffff811115610c7357610c73610bb8565b610c8781610c818454610bce565b84610c08565b602080601f831160018114610cbc5760008415610ca45750858301515b600019600386901b1c1916600185901b178555610c50565b600085815260208120601f198616915b82811015610ceb57888601518255948401946001909101908401610ccc565b5085821015610d095787850151600019600388901b60f8161c191681555b5050505050600190811b01905550565b600060018201610d3957634e487b7160e01b600052601160045260246000fd5b5060010190565b606081528360608201528385608083013760006080858301015260006080601f19601f870116830101905083602083015282604083015295945050505050565b634e487b7160e01b600052603260045260246000fd5b83815260608101610daa6020830185610a5d565b82604083015294935050505056fea2646970667358221220569f0d2134c7bb59fc7536b31247d82270749c0d808517c9b98cfcce87a6732f64736f6c63430008180033","opcodes":"PUSH1 0x80 PUSH1 0x40 MSTORE CALLVALUE DUP1 ISZERO PUSH2 0x10 JUMPI PUSH1 0x0 DUP1 REVERT JUMPDEST POP PUSH1 0x0 DUP1 SLOAD PUSH1 0x1 PUSH1 0x1 PUSH1 0xA0 SHL SUB NOT AND CALLER OR SWAP1 SSTORE PUSH2 0xDEE DUP1 PUSH2 0x32 PUSH1 0x0 CODECOPY PUSH1 0x0 RETURN INVALID PUSH1 0x80 PUSH1 0x40 MSTORE CALLVALUE DUP1 ISZERO PUSH2 0x10 JUMPI PUSH1 0x0 DUP1 REVERT JUMPDEST POP PUSH1 0x4 CALLDATASIZE LT PUSH2 0xCF JUMPI PUSH1 0x0 CALLDATALOAD PUSH1 0xE0 SHR DUP1 PUSH4 0x8DA5CB5B GT PUSH2 0x8C JUMPI DUP1 PUSH4 0xF2FDE38B GT PUSH2 0x66 JUMPI DUP1 PUSH4 0xF2FDE38B EQ PUSH2 0x21B JUMPI DUP1 PUSH4 0xF33BFC62 EQ PUSH2 0x22E JUMPI DUP1 PUSH4 0xFC6D0F09 EQ PUSH2 0x252 JUMPI DUP1 PUSH4 0xFEF6BE9E EQ PUSH2 0x25B JUMPI PUSH1 0x0 DUP1 REVERT JUMPDEST DUP1 PUSH4 0x8DA5CB5B EQ PUSH2 0x18C JUMPI DUP1 PUSH4 0xB09227CE EQ PUSH2 0x1B7 JUMPI DUP1 PUSH4 0xC48A21B1 EQ PUSH2 0x208 JUMPI PUSH1 0x0 DUP1 REVERT JUMPDEST DUP1 PUSH4 0xC2E4968 EQ PUSH2 0xD4 JUMPI DUP1 PUSH4 0x2ED8DCF7 EQ PUSH2 0x11A JUMPI DUP1 PUSH4 0x389F591D EQ PUSH2 0x148 JUMPI DUP1 PUSH4 0x57A80539 EQ PUSH2 0x15D JUMPI DUP1 PUSH4 0x71BE2E4A EQ PUSH2 0x170 JUMPI DUP1 PUSH4 0x86474ECB EQ PUSH2 0x179 JUMPI JUMPDEST PUSH1 0x0 DUP1 REVERT JUMPDEST PUSH2 0x105 PUSH2 0xE2 CALLDATASIZE PUSH1 0x4 PUSH2 0x94D JUMP JUMPDEST PUSH1 0x0 SWAP2 DUP3 MSTORE PUSH1 0x2 PUSH1 0x20 SWAP1 DUP2 MSTORE PUSH1 0x40 DUP1 DUP5 KECCAK256 SWAP3 DUP5 MSTORE SWAP2 SWAP1 MSTORE SWAP1 KECCAK256 PUSH1 0x3 ADD SLOAD PUSH1 0xFF AND SWAP1 JUMP JUMPDEST PUSH1 0x40 MLOAD SWAP1 ISZERO ISZERO DUP2 MSTORE PUSH1 0x20 ADD JUMPDEST PUSH1 0x40 MLOAD DUP1 SWAP2 SUB SWAP1 RETURN JUMPDEST PUSH2 0x13A PUSH2 0x128 CALLDATASIZE PUSH1 0x4 PUSH2 0x96F JUMP JUMPDEST PUSH1 0x0 SWAP1 DUP2 MSTORE PUSH1 0x3 PUSH1 0x20 MSTORE PUSH1 0x40 SWAP1 KECCAK256 SLOAD SWAP1 JUMP JUMPDEST PUSH1 0x40 MLOAD SWAP1 DUP2 MSTORE PUSH1 0x20 ADD PUSH2 0x111 JUMP JUMPDEST PUSH2 0x15B PUSH2 0x156 CALLDATASIZE PUSH1 0x4 PUSH2 0x988 JUMP JUMPDEST PUSH2 0x2B0 JUMP JUMPDEST STOP JUMPDEST PUSH2 0x13A PUSH2 0x16B CALLDATASIZE PUSH1 0x4 PUSH2 0x94D JUMP JUMPDEST PUSH2 0x4D7 JUMP JUMPDEST PUSH2 0x13A PUSH1 0x5 SLOAD DUP2 JUMP JUMPDEST PUSH2 0x15B PUSH2 0x187 CALLDATASIZE PUSH1 0x4 PUSH2 0xA0A JUMP JUMPDEST PUSH2 0x578 JUMP JUMPDEST PUSH1 0x0 SLOAD PUSH2 0x19F SWAP1 PUSH1 0x1 PUSH1 0x1 PUSH1 0xA0 SHL SUB AND DUP2 JUMP JUMPDEST PUSH1 0x40 MLOAD PUSH1 0x1 PUSH1 0x1 PUSH1 0xA0 SHL SUB SWAP1 SWAP2 AND DUP2 MSTORE PUSH1 0x20 ADD PUSH2 0x111 JUMP JUMPDEST PUSH2 0x1F9 PUSH2 0x1C5 CALLDATASIZE PUSH1 0x4 PUSH2 0x94D JUMP JUMPDEST PUSH1 0x0 SWAP2 DUP3 MSTORE PUSH1 0x2 PUSH1 0x20 DUP2 DUP2 MSTORE PUSH1 0x40 DUP1 DUP6 KECCAK256 SWAP4 DUP6 MSTORE SWAP3 SWAP1 MSTORE SWAP2 KECCAK256 PUSH1 0x1 DUP2 ADD SLOAD SWAP2 DUP2 ADD SLOAD PUSH1 0x3 SWAP1 SWAP2 ADD SLOAD PUSH1 0xFF SWAP3 DUP4 AND SWAP4 SWAP2 SWAP3 AND SWAP1 JUMP JUMPDEST PUSH1 0x40 MLOAD PUSH2 0x111 SWAP4 SWAP3 SWAP2 SWAP1 PUSH2 0xA7F JUMP JUMPDEST PUSH2 0x13A PUSH2 0x216 CALLDATASIZE PUSH1 0x4 PUSH2 0x94D JUMP JUMPDEST PUSH2 0x7A8 JUMP JUMPDEST PUSH2 0x15B PUSH2 0x229 CALLDATASIZE PUSH1 0x4 PUSH2 0xAA3 JUMP JUMPDEST PUSH2 0x7D9 JUMP JUMPDEST PUSH2 0x241 PUSH2 0x23C CALLDATASIZE PUSH1 0x4 PUSH2 0x96F JUMP JUMPDEST PUSH2 0x892 JUMP JUMPDEST PUSH1 0x40 MLOAD PUSH2 0x111 SWAP6 SWAP5 SWAP4 SWAP3 SWAP2 SWAP1 PUSH2 0xAD3 JUMP JUMPDEST PUSH2 0x13A PUSH1 0x4 SLOAD DUP2 JUMP JUMPDEST PUSH2 0x2A0 PUSH2 0x269 CALLDATASIZE PUSH1 0x4 PUSH2 0x94D JUMP JUMPDEST PUSH1 0x2 PUSH1 0x20 DUP2 DUP2 MSTORE PUSH1 0x0 SWAP4 DUP5 MSTORE PUSH1 0x40 DUP1 DUP6 KECCAK256 SWAP1 SWAP2 MSTORE SWAP2 DUP4 MSTORE SWAP2 KECCAK256 DUP1 SLOAD PUSH1 0x1 DUP3 ADD SLOAD SWAP3 DUP3 ADD SLOAD PUSH1 0x3 SWAP1 SWAP3 ADD SLOAD SWAP1 SWAP3 PUSH1 0xFF SWAP1 DUP2 AND SWAP3 SWAP2 AND DUP5 JUMP JUMPDEST PUSH1 0x40 MLOAD PUSH2 0x111 SWAP5 SWAP4 SWAP3 SWAP2 SWAP1 PUSH2 0xB41 JUMP JUMPDEST PUSH1 0x0 SLOAD PUSH1 0x1 PUSH1 0x1 PUSH1 0xA0 SHL SUB AND CALLER EQ PUSH2 0x2E3 JUMPI PUSH1 0x40 MLOAD PUSH3 0x461BCD PUSH1 0xE5 SHL DUP2 MSTORE PUSH1 0x4 ADD PUSH2 0x2DA SWAP1 PUSH2 0xB6C JUMP JUMPDEST PUSH1 0x40 MLOAD DUP1 SWAP2 SUB SWAP1 REVERT JUMPDEST PUSH1 0x0 DUP5 DUP2 MSTORE PUSH1 0x1 PUSH1 0x20 MSTORE PUSH1 0x40 SWAP1 KECCAK256 PUSH1 0x4 ADD SLOAD PUSH1 0xFF AND ISZERO PUSH2 0x361 JUMPI PUSH1 0x40 MLOAD PUSH3 0x461BCD PUSH1 0xE5 SHL DUP2 MSTORE PUSH1 0x20 PUSH1 0x4 DUP3 ADD MSTORE PUSH1 0x33 PUSH1 0x24 DUP3 ADD MSTORE PUSH32 0x50726F637572656D656E7452656769737472793A2070726F637572656D656E74 PUSH1 0x44 DUP3 ADD MSTORE PUSH19 0x8185B1C9958591E481C9959DA5CDD195C9959 PUSH1 0x6A SHL PUSH1 0x64 DUP3 ADD MSTORE PUSH1 0x84 ADD PUSH2 0x2DA JUMP JUMPDEST PUSH1 0x0 DUP2 GT PUSH2 0x3CC JUMPI PUSH1 0x40 MLOAD PUSH3 0x461BCD PUSH1 0xE5 SHL DUP2 MSTORE PUSH1 0x20 PUSH1 0x4 DUP3 ADD MSTORE PUSH1 0x32 PUSH1 0x24 DUP3 ADD MSTORE PUSH32 0x50726F637572656D656E7452656769737472793A20414243206D757374206265 PUSH1 0x44 DUP3 ADD MSTORE PUSH18 0x2067726561746572207468616E207A65726F PUSH1 0x70 SHL PUSH1 0x64 DUP3 ADD MSTORE PUSH1 0x84 ADD PUSH2 0x2DA JUMP JUMPDEST PUSH1 0x40 MLOAD DUP1 PUSH1 0xA0 ADD PUSH1 0x40 MSTORE DUP1 DUP6 DUP2 MSTORE PUSH1 0x20 ADD DUP5 DUP5 DUP1 DUP1 PUSH1 0x1F ADD PUSH1 0x20 DUP1 SWAP2 DIV MUL PUSH1 0x20 ADD PUSH1 0x40 MLOAD SWAP1 DUP2 ADD PUSH1 0x40 MSTORE DUP1 SWAP4 SWAP3 SWAP2 SWAP1 DUP2 DUP2 MSTORE PUSH1 0x20 ADD DUP4 DUP4 DUP1 DUP3 DUP5 CALLDATACOPY PUSH1 0x0 SWAP3 ADD DUP3 SWAP1 MSTORE POP SWAP4 DUP6 MSTORE POP POP POP PUSH1 0x20 DUP1 DUP4 ADD DUP6 SWAP1 MSTORE TIMESTAMP PUSH1 0x40 DUP1 DUP6 ADD SWAP2 SWAP1 SWAP2 MSTORE PUSH1 0x1 PUSH1 0x60 SWAP1 SWAP5 ADD DUP5 SWAP1 MSTORE DUP9 DUP4 MSTORE DUP4 DUP3 MSTORE SWAP1 SWAP2 KECCAK256 DUP4 MLOAD DUP2 SSTORE SWAP1 DUP4 ADD MLOAD SWAP1 SWAP2 DUP3 ADD SWAP1 PUSH2 0x451 SWAP1 DUP3 PUSH2 0xC59 JUMP JUMPDEST POP PUSH1 0x40 DUP3 ADD MLOAD PUSH1 0x2 DUP3 ADD SSTORE PUSH1 0x60 DUP3 ADD MLOAD PUSH1 0x3 DUP3 ADD SSTORE PUSH1 0x80 SWAP1 SWAP2 ADD MLOAD PUSH1 0x4 SWAP2 DUP3 ADD DUP1 SLOAD PUSH1 0xFF NOT AND SWAP2 ISZERO ISZERO SWAP2 SWAP1 SWAP2 OR SWAP1 SSTORE DUP1 SLOAD SWAP1 PUSH1 0x0 PUSH2 0x48E DUP4 PUSH2 0xD19 JUMP JUMPDEST SWAP2 SWAP1 POP SSTORE POP DUP4 PUSH32 0x922E22D50443E32E1DB2E1950AD7FD475C676D42EAF49AA7B3493289420F8D98 DUP5 DUP5 DUP5 TIMESTAMP PUSH1 0x40 MLOAD PUSH2 0x4C9 SWAP5 SWAP4 SWAP3 SWAP2 SWAP1 PUSH2 0xD40 JUMP JUMPDEST PUSH1 0x40 MLOAD DUP1 SWAP2 SUB SWAP1 LOG2 POP POP POP POP JUMP JUMPDEST PUSH1 0x0 DUP3 DUP2 MSTORE PUSH1 0x3 PUSH1 0x20 MSTORE PUSH1 0x40 DUP2 KECCAK256 SLOAD DUP3 LT PUSH2 0x545 JUMPI PUSH1 0x40 MLOAD PUSH3 0x461BCD PUSH1 0xE5 SHL DUP2 MSTORE PUSH1 0x20 PUSH1 0x4 DUP3 ADD MSTORE PUSH1 0x28 PUSH1 0x24 DUP3 ADD MSTORE PUSH32 0x50726F637572656D656E7452656769737472793A20696E646578206F7574206F PUSH1 0x44 DUP3 ADD MSTORE PUSH8 0x6620626F756E6473 PUSH1 0xC0 SHL PUSH1 0x64 DUP3 ADD MSTORE PUSH1 0x84 ADD PUSH2 0x2DA JUMP JUMPDEST PUSH1 0x0 DUP4 DUP2 MSTORE PUSH1 0x3 PUSH1 0x20 MSTORE PUSH1 0x40 SWAP1 KECCAK256 DUP1 SLOAD DUP4 SWAP1 DUP2 LT PUSH2 0x565 JUMPI PUSH2 0x565 PUSH2 0xD80 JUMP JUMPDEST SWAP1 PUSH1 0x0 MSTORE PUSH1 0x20 PUSH1 0x0 KECCAK256 ADD SLOAD SWAP1 POP SWAP3 SWAP2 POP POP JUMP JUMPDEST PUSH1 0x0 SLOAD PUSH1 0x1 PUSH1 0x1 PUSH1 0xA0 SHL SUB AND CALLER EQ PUSH2 0x5A2 JUMPI PUSH1 0x40 MLOAD PUSH3 0x461BCD PUSH1 0xE5 SHL DUP2 MSTORE PUSH1 0x4 ADD PUSH2 0x2DA SWAP1 PUSH2 0xB6C JUMP JUMPDEST PUSH1 0x0 DUP4 DUP2 MSTORE PUSH1 0x1 PUSH1 0x20 MSTORE PUSH1 0x40 SWAP1 KECCAK256 PUSH1 0x4 ADD SLOAD DUP4 SWAP1 PUSH1 0xFF AND PUSH2 0x61D JUMPI PUSH1 0x40 MLOAD PUSH3 0x461BCD PUSH1 0xE5 SHL DUP2 MSTORE PUSH1 0x20 PUSH1 0x4 DUP3 ADD MSTORE PUSH1 0x2F PUSH1 0x24 DUP3 ADD MSTORE PUSH32 0x50726F637572656D656E7452656769737472793A2070726F637572656D656E74 PUSH1 0x44 DUP3 ADD MSTORE PUSH15 0x8191BD95CC81B9BDD08195E1A5CDD PUSH1 0x8A SHL PUSH1 0x64 DUP3 ADD MSTORE PUSH1 0x84 ADD PUSH2 0x2DA JUMP JUMPDEST PUSH1 0x0 DUP5 DUP2 MSTORE PUSH1 0x2 PUSH1 0x20 SWAP1 DUP2 MSTORE PUSH1 0x40 DUP1 DUP4 KECCAK256 DUP7 DUP5 MSTORE SWAP1 SWAP2 MSTORE SWAP1 KECCAK256 PUSH1 0x3 ADD SLOAD PUSH1 0xFF AND ISZERO PUSH2 0x69E JUMPI PUSH1 0x40 MLOAD PUSH3 0x461BCD PUSH1 0xE5 SHL DUP2 MSTORE PUSH1 0x20 PUSH1 0x4 DUP3 ADD MSTORE PUSH1 0x2B PUSH1 0x24 DUP3 ADD MSTORE PUSH32 0x50726F637572656D656E7452656769737472793A206576656E7420616C726561 PUSH1 0x44 DUP3 ADD MSTORE PUSH11 0x191E48185B98DA1BDC9959 PUSH1 0xAA SHL PUSH1 0x64 DUP3 ADD MSTORE PUSH1 0x84 ADD PUSH2 0x2DA JUMP JUMPDEST PUSH1 0x40 MLOAD DUP1 PUSH1 0x80 ADD PUSH1 0x40 MSTORE DUP1 DUP5 DUP2 MSTORE PUSH1 0x20 ADD DUP4 PUSH1 0x6 DUP2 GT ISZERO PUSH2 0x6C1 JUMPI PUSH2 0x6C1 PUSH2 0xA47 JUMP JUMPDEST DUP2 MSTORE TIMESTAMP PUSH1 0x20 DUP1 DUP4 ADD SWAP2 SWAP1 SWAP2 MSTORE PUSH1 0x1 PUSH1 0x40 SWAP3 DUP4 ADD DUP2 SWAP1 MSTORE PUSH1 0x0 DUP9 DUP2 MSTORE PUSH1 0x2 DUP4 MSTORE DUP4 DUP2 KECCAK256 DUP9 DUP3 MSTORE DUP4 MSTORE SWAP3 SWAP1 SWAP3 KECCAK256 DUP4 MLOAD DUP2 SSTORE SWAP1 DUP4 ADD MLOAD DUP2 DUP4 ADD DUP1 SLOAD SWAP3 SWAP4 SWAP2 SWAP3 SWAP1 SWAP2 PUSH1 0xFF NOT SWAP1 SWAP2 AND SWAP1 DUP4 PUSH1 0x6 DUP2 GT ISZERO PUSH2 0x718 JUMPI PUSH2 0x718 PUSH2 0xA47 JUMP JUMPDEST MUL OR SWAP1 SSTORE POP PUSH1 0x40 DUP3 DUP2 ADD MLOAD PUSH1 0x2 DUP4 ADD SSTORE PUSH1 0x60 SWAP1 SWAP3 ADD MLOAD PUSH1 0x3 SWAP2 DUP3 ADD DUP1 SLOAD PUSH1 0xFF NOT AND SWAP2 ISZERO ISZERO SWAP2 SWAP1 SWAP2 OR SWAP1 SSTORE PUSH1 0x0 DUP7 DUP2 MSTORE PUSH1 0x20 SWAP2 DUP3 MSTORE SWAP2 DUP3 KECCAK256 DUP1 SLOAD PUSH1 0x1 DUP2 ADD DUP3 SSTORE SWAP1 DUP4 MSTORE SWAP1 DUP3 KECCAK256 ADD DUP5 SWAP1 SSTORE PUSH1 0x5 DUP1 SLOAD SWAP2 PUSH2 0x76F DUP4 PUSH2 0xD19 JUMP JUMPDEST SWAP2 SWAP1 POP SSTORE POP DUP4 PUSH32 0x14ABDE2309714526B2B4605818411B283667D333CE1DCE3DAA7584AC42F12737 DUP5 DUP5 TIMESTAMP PUSH1 0x40 MLOAD PUSH2 0x4C9 SWAP4 SWAP3 SWAP2 SWAP1 PUSH2 0xD96 JUMP JUMPDEST PUSH1 0x3 PUSH1 0x20 MSTORE DUP2 PUSH1 0x0 MSTORE PUSH1 0x40 PUSH1 0x0 KECCAK256 DUP2 DUP2 SLOAD DUP2 LT PUSH2 0x7C4 JUMPI PUSH1 0x0 DUP1 REVERT JUMPDEST SWAP1 PUSH1 0x0 MSTORE PUSH1 0x20 PUSH1 0x0 KECCAK256 ADD PUSH1 0x0 SWAP2 POP SWAP2 POP POP SLOAD DUP2 JUMP JUMPDEST PUSH1 0x0 SLOAD PUSH1 0x1 PUSH1 0x1 PUSH1 0xA0 SHL SUB AND CALLER EQ PUSH2 0x803 JUMPI PUSH1 0x40 MLOAD PUSH3 0x461BCD PUSH1 0xE5 SHL DUP2 MSTORE PUSH1 0x4 ADD PUSH2 0x2DA SWAP1 PUSH2 0xB6C JUMP JUMPDEST PUSH1 0x1 PUSH1 0x1 PUSH1 0xA0 SHL SUB DUP2 AND PUSH2 0x870 JUMPI PUSH1 0x40 MLOAD PUSH3 0x461BCD PUSH1 0xE5 SHL DUP2 MSTORE PUSH1 0x20 PUSH1 0x4 DUP3 ADD MSTORE PUSH1 0x2E PUSH1 0x24 DUP3 ADD MSTORE PUSH32 0x50726F637572656D656E7452656769737472793A206E6577206F776E65722069 PUSH1 0x44 DUP3 ADD MSTORE PUSH14 0x73207A65726F2061646472657373 PUSH1 0x90 SHL PUSH1 0x64 DUP3 ADD MSTORE PUSH1 0x84 ADD PUSH2 0x2DA JUMP JUMPDEST PUSH1 0x0 DUP1 SLOAD PUSH1 0x1 PUSH1 0x1 PUSH1 0xA0 SHL SUB NOT AND PUSH1 0x1 PUSH1 0x1 PUSH1 0xA0 SHL SUB SWAP3 SWAP1 SWAP3 AND SWAP2 SWAP1 SWAP2 OR SWAP1 SSTORE JUMP JUMPDEST PUSH1 0x1 PUSH1 0x20 DUP2 SWAP1 MSTORE PUSH1 0x0 SWAP2 DUP3 MSTORE PUSH1 0x40 SWAP1 SWAP2 KECCAK256 DUP1 SLOAD SWAP2 DUP2 ADD DUP1 SLOAD PUSH2 0x8B3 SWAP1 PUSH2 0xBCE JUMP JUMPDEST DUP1 PUSH1 0x1F ADD PUSH1 0x20 DUP1 SWAP2 DIV MUL PUSH1 0x20 ADD PUSH1 0x40 MLOAD SWAP1 DUP2 ADD PUSH1 0x40 MSTORE DUP1 SWAP3 SWAP2 SWAP1 DUP2 DUP2 MSTORE PUSH1 0x20 ADD DUP3 DUP1 SLOAD PUSH2 0x8DF SWAP1 PUSH2 0xBCE JUMP JUMPDEST DUP1 ISZERO PUSH2 0x92C JUMPI DUP1 PUSH1 0x1F LT PUSH2 0x901 JUMPI PUSH2 0x100 DUP1 DUP4 SLOAD DIV MUL DUP4 MSTORE SWAP2 PUSH1 0x20 ADD SWAP2 PUSH2 0x92C JUMP JUMPDEST DUP3 ADD SWAP2 SWAP1 PUSH1 0x0 MSTORE PUSH1 0x20 PUSH1 0x0 KECCAK256 SWAP1 JUMPDEST DUP2 SLOAD DUP2 MSTORE SWAP1 PUSH1 0x1 ADD SWAP1 PUSH1 0x20 ADD DUP1 DUP4 GT PUSH2 0x90F JUMPI DUP3 SWAP1 SUB PUSH1 0x1F AND DUP3 ADD SWAP2 JUMPDEST POP POP POP POP PUSH1 0x2 DUP4 ADD SLOAD PUSH1 0x3 DUP5 ADD SLOAD PUSH1 0x4 SWAP1 SWAP5 ADD SLOAD SWAP3 SWAP4 SWAP1 SWAP3 SWAP1 SWAP2 POP PUSH1 0xFF AND DUP6 JUMP JUMPDEST PUSH1 0x0 DUP1 PUSH1 0x40 DUP4 DUP6 SUB SLT ISZERO PUSH2 0x960 JUMPI PUSH1 0x0 DUP1 REVERT JUMPDEST POP POP DUP1 CALLDATALOAD SWAP3 PUSH1 0x20 SWAP1 SWAP2 ADD CALLDATALOAD SWAP2 POP JUMP JUMPDEST PUSH1 0x0 PUSH1 0x20 DUP3 DUP5 SUB SLT ISZERO PUSH2 0x981 JUMPI PUSH1 0x0 DUP1 REVERT JUMPDEST POP CALLDATALOAD SWAP2 SWAP1 POP JUMP JUMPDEST PUSH1 0x0 DUP1 PUSH1 0x0 DUP1 PUSH1 0x60 DUP6 DUP8 SUB SLT ISZERO PUSH2 0x99E JUMPI PUSH1 0x0 DUP1 REVERT JUMPDEST DUP5 CALLDATALOAD SWAP4 POP PUSH1 0x20 DUP6 ADD CALLDATALOAD PUSH8 0xFFFFFFFFFFFFFFFF DUP1 DUP3 GT ISZERO PUSH2 0x9BD JUMPI PUSH1 0x0 DUP1 REVERT JUMPDEST DUP2 DUP8 ADD SWAP2 POP DUP8 PUSH1 0x1F DUP4 ADD SLT PUSH2 0x9D1 JUMPI PUSH1 0x0 DUP1 REVERT JUMPDEST DUP2 CALLDATALOAD DUP2 DUP2 GT ISZERO PUSH2 0x9E0 JUMPI PUSH1 0x0 DUP1 REVERT JUMPDEST DUP9 PUSH1 0x20 DUP3 DUP6 ADD ADD GT ISZERO PUSH2 0x9F2 JUMPI PUSH1 0x0 DUP1 REVERT JUMPDEST SWAP6 SWAP9 PUSH1 0x20 SWAP3 SWAP1 SWAP3 ADD SWAP8 POP SWAP5 SWAP6 PUSH1 0x40 ADD CALLDATALOAD SWAP5 POP SWAP3 POP POP POP JUMP JUMPDEST PUSH1 0x0 DUP1 PUSH1 0x0 PUSH1 0x60 DUP5 DUP7 SUB SLT ISZERO PUSH2 0xA1F JUMPI PUSH1 0x0 DUP1 REVERT JUMPDEST DUP4 CALLDATALOAD SWAP3 POP PUSH1 0x20 DUP5 ADD CALLDATALOAD SWAP2 POP PUSH1 0x40 DUP5 ADD CALLDATALOAD PUSH1 0x7 DUP2 LT PUSH2 0xA3C JUMPI PUSH1 0x0 DUP1 REVERT JUMPDEST DUP1 SWAP2 POP POP SWAP3 POP SWAP3 POP SWAP3 JUMP JUMPDEST PUSH4 0x4E487B71 PUSH1 0xE0 SHL PUSH1 0x0 MSTORE PUSH1 0x21 PUSH1 0x4 MSTORE PUSH1 0x24 PUSH1 0x0 REVERT JUMPDEST PUSH1 0x7 DUP2 LT PUSH2 0xA7B JUMPI PUSH4 0x4E487B71 PUSH1 0xE0 SHL PUSH1 0x0 MSTORE PUSH1 0x21 PUSH1 0x4 MSTORE PUSH1 0x24 PUSH1 0x0 REVERT JUMPDEST SWAP1 MSTORE JUMP JUMPDEST PUSH1 0x60 DUP2 ADD PUSH2 0xA8D DUP3 DUP7 PUSH2 0xA5D JUMP JUMPDEST DUP4 PUSH1 0x20 DUP4 ADD MSTORE DUP3 ISZERO ISZERO PUSH1 0x40 DUP4 ADD MSTORE SWAP5 SWAP4 POP POP POP POP JUMP JUMPDEST PUSH1 0x0 PUSH1 0x20 DUP3 DUP5 SUB SLT ISZERO PUSH2 0xAB5 JUMPI PUSH1 0x0 DUP1 REVERT JUMPDEST DUP2 CALLDATALOAD PUSH1 0x1 PUSH1 0x1 PUSH1 0xA0 SHL SUB DUP2 AND DUP2 EQ PUSH2 0xACC JUMPI PUSH1 0x0 DUP1 REVERT JUMPDEST SWAP4 SWAP3 POP POP POP JUMP JUMPDEST DUP6 DUP2 MSTORE PUSH1 0x0 PUSH1 0x20 PUSH1 0xA0 PUSH1 0x20 DUP5 ADD MSTORE DUP7 MLOAD DUP1 PUSH1 0xA0 DUP6 ADD MSTORE PUSH1 0x0 JUMPDEST DUP2 DUP2 LT ISZERO PUSH2 0xB08 JUMPI DUP9 DUP2 ADD DUP4 ADD MLOAD DUP6 DUP3 ADD PUSH1 0xC0 ADD MSTORE DUP3 ADD PUSH2 0xAEC JUMP JUMPDEST POP PUSH1 0x0 PUSH1 0xC0 DUP3 DUP7 ADD ADD MSTORE PUSH1 0xC0 PUSH1 0x1F NOT PUSH1 0x1F DUP4 ADD AND DUP6 ADD ADD SWAP3 POP POP POP DUP5 PUSH1 0x40 DUP4 ADD MSTORE DUP4 PUSH1 0x60 DUP4 ADD MSTORE DUP3 ISZERO ISZERO PUSH1 0x80 DUP4 ADD MSTORE SWAP7 SWAP6 POP POP POP POP POP POP JUMP JUMPDEST DUP5 DUP2 MSTORE PUSH1 0x80 DUP2 ADD PUSH2 0xB55 PUSH1 0x20 DUP4 ADD DUP7 PUSH2 0xA5D JUMP JUMPDEST DUP4 PUSH1 0x40 DUP4 ADD MSTORE DUP3 ISZERO ISZERO PUSH1 0x60 DUP4 ADD MSTORE SWAP6 SWAP5 POP POP POP POP POP JUMP JUMPDEST PUSH1 0x20 DUP1 DUP3 MSTORE PUSH1 0x2C SWAP1 DUP3 ADD MSTORE PUSH32 0x50726F637572656D656E7452656769737472793A2063616C6C6572206973206E PUSH1 0x40 DUP3 ADD MSTORE PUSH12 0x37BA103A34329037BBB732B9 PUSH1 0xA1 SHL PUSH1 0x60 DUP3 ADD MSTORE PUSH1 0x80 ADD SWAP1 JUMP JUMPDEST PUSH4 0x4E487B71 PUSH1 0xE0 SHL PUSH1 0x0 MSTORE PUSH1 0x41 PUSH1 0x4 MSTORE PUSH1 0x24 PUSH1 0x0 REVERT JUMPDEST PUSH1 0x1 DUP2 DUP2 SHR SWAP1 DUP3 AND DUP1 PUSH2 0xBE2 JUMPI PUSH1 0x7F DUP3 AND SWAP2 POP JUMPDEST PUSH1 0x20 DUP3 LT DUP2 SUB PUSH2 0xC02 JUMPI PUSH4 0x4E487B71 PUSH1 0xE0 SHL PUSH1 0x0 MSTORE PUSH1 0x22 PUSH1 0x4 MSTORE PUSH1 0x24 PUSH1 0x0 REVERT JUMPDEST POP SWAP2 SWAP1 POP JUMP JUMPDEST PUSH1 0x1F DUP3 GT ISZERO PUSH2 0xC54 JUMPI PUSH1 0x0 DUP2 PUSH1 0x0 MSTORE PUSH1 0x20 PUSH1 0x0 KECCAK256 PUSH1 0x1F DUP6 ADD PUSH1 0x5 SHR DUP2 ADD PUSH1 0x20 DUP7 LT ISZERO PUSH2 0xC31 JUMPI POP DUP1 JUMPDEST PUSH1 0x1F DUP6 ADD PUSH1 0x5 SHR DUP3 ADD SWAP2 POP JUMPDEST DUP2 DUP2 LT ISZERO PUSH2 0xC50 JUMPI DUP3 DUP2 SSTORE PUSH1 0x1 ADD PUSH2 0xC3D JUMP JUMPDEST POP POP POP JUMPDEST POP POP POP JUMP JUMPDEST DUP2 MLOAD PUSH8 0xFFFFFFFFFFFFFFFF DUP2 GT ISZERO PUSH2 0xC73 JUMPI PUSH2 0xC73 PUSH2 0xBB8 JUMP JUMPDEST PUSH2 0xC87 DUP2 PUSH2 0xC81 DUP5 SLOAD PUSH2 0xBCE JUMP JUMPDEST DUP5 PUSH2 0xC08 JUMP JUMPDEST PUSH1 0x20 DUP1 PUSH1 0x1F DUP4 GT PUSH1 0x1 DUP2 EQ PUSH2 0xCBC JUMPI PUSH1 0x0 DUP5 ISZERO PUSH2 0xCA4 JUMPI POP DUP6 DUP4 ADD MLOAD JUMPDEST PUSH1 0x0 NOT PUSH1 0x3 DUP7 SWAP1 SHL SHR NOT AND PUSH1 0x1 DUP6 SWAP1 SHL OR DUP6 SSTORE PUSH2 0xC50 JUMP JUMPDEST PUSH1 0x0 DUP6 DUP2 MSTORE PUSH1 0x20 DUP2 KECCAK256 PUSH1 0x1F NOT DUP7 AND SWAP2 JUMPDEST DUP3 DUP2 LT ISZERO PUSH2 0xCEB JUMPI DUP9 DUP7 ADD MLOAD DUP3 SSTORE SWAP5 DUP5 ADD SWAP5 PUSH1 0x1 SWAP1 SWAP2 ADD SWAP1 DUP5 ADD PUSH2 0xCCC JUMP JUMPDEST POP DUP6 DUP3 LT ISZERO PUSH2 0xD09 JUMPI DUP8 DUP6 ADD MLOAD PUSH1 0x0 NOT PUSH1 0x3 DUP9 SWAP1 SHL PUSH1 0xF8 AND SHR NOT AND DUP2 SSTORE JUMPDEST POP POP POP POP POP PUSH1 0x1 SWAP1 DUP2 SHL ADD SWAP1 SSTORE POP JUMP JUMPDEST PUSH1 0x0 PUSH1 0x1 DUP3 ADD PUSH2 0xD39 JUMPI PUSH4 0x4E487B71 PUSH1 0xE0 SHL PUSH1 0x0 MSTORE PUSH1 0x11 PUSH1 0x4 MSTORE PUSH1 0x24 PUSH1 0x0 REVERT JUMPDEST POP PUSH1 0x1 ADD SWAP1 JUMP JUMPDEST PUSH1 0x60 DUP2 MSTORE DUP4 PUSH1 0x60 DUP3 ADD MSTORE DUP4 DUP6 PUSH1 0x80 DUP4 ADD CALLDATACOPY PUSH1 0x0 PUSH1 0x80 DUP6 DUP4 ADD ADD MSTORE PUSH1 0x0 PUSH1 0x80 PUSH1 0x1F NOT PUSH1 0x1F DUP8 ADD AND DUP4 ADD ADD SWAP1 POP DUP4 PUSH1 0x20 DUP4 ADD MSTORE DUP3 PUSH1 0x40 DUP4 ADD MSTORE SWAP6 SWAP5 POP POP POP POP POP JUMP JUMPDEST PUSH4 0x4E487B71 PUSH1 0xE0 SHL PUSH1 0x0 MSTORE PUSH1 0x32 PUSH1 0x4 MSTORE PUSH1 0x24 PUSH1 0x0 REVERT JUMPDEST DUP4 DUP2 MSTORE PUSH1 0x60 DUP2 ADD PUSH2 0xDAA PUSH1 0x20 DUP4 ADD DUP6 PUSH2 0xA5D JUMP JUMPDEST DUP3 PUSH1 0x40 DUP4 ADD MSTORE SWAP5 SWAP4 POP POP POP POP JUMP INVALID LOG2 PUSH5 0x6970667358 0x22 SLT KECCAK256 JUMP SWAP16 0xD 0x21 CALLVALUE 0xC7 0xBB MSIZE 0xFC PUSH22 0x36B31247D82270749C0D808517C9B98CFCCE87A6732F PUSH5 0x736F6C6343 STOP ADDMOD XOR STOP CALLER "},"methodIdentifiers":{"anchorEvent(bytes32,bytes32,uint8)":"86474ecb","anchoredEvents(bytes32,bytes32)":"fef6be9e","eventCount()":"71be2e4a","eventHistory(bytes32,uint256)":"c48a21b1","getEventCount(bytes32)":"2ed8dcf7","getEventDetail(bytes32,bytes32)":"b09227ce","getEventHashAtIndex(bytes32,uint256)":"57a80539","owner()":"8da5cb5b","procurementCount()":"fc6d0f09","procurements(bytes32)":"f33bfc62","registerProcurement(bytes32,string,uint256)":"389f591d","transferOwnership(address)":"f2fde38b","verifyEvent(bytes32,bytes32)":"0c2e4968"}}}}}